S02B00004D61747465724C696768744F766572546872656164536F6C7574696F6E5F6475616C5F696E7374619B
S3150800600000120020B94C0408E9DE0B08AB26090883
S31508006010251E0C08E9DE0B08E9DE0B08E9DE0B088D
S31508006020E9DE0B08E9DE0B08E9DE0B086164000807
S31508006030E9DE0B0878BD1008F16300080B530C085D
S3150800604011520408E9DE0B08E9DE0B08E9DE0B0845
S31508006050E9DE0B08E9DE0B08E9DE0B08E9DE0B08CA
S31508006060E9DE0B08E9DE0B08E9DE0B0831B90008A2
S31508006070E9DE0B08E9DE0B08E9DE0B08E9DE0B08AA
S31508006080E9DE0B08E9DE0B08E9DE0B08E9DE0B089A
S31508006090E9DE0B08B55A0408E9DE0B08E9DE0B0849
S315080060A0E9DE0B08995C0408715C0408E9DE0B0854
S315080060B0E9DE0B0815790808A5830808D7430F08F1
S315080060C0D3430F08497B0808E3430F08DB430F084F
S315080060D079830808DF430F08E58308085184080810
S315080060E0E9DE0B08E9DE0B08E9DE0B08E9DE0B083A
S315080060F0BD190C08E9DE0B08E9DE0B08E9DE0B081A
S31508006100E9DE0B08E9DE0B08E9DE0B08E9DE0B0819
S31508006110E9DE0B08E9DE0B08E9DE0B08E9DE0B0809
S31508006120E9DE0B08E9DE0B08E9DE0B08E9DE0B08F9
S31508006130E9DE0B08E9DE0B08E9DE0B08E9DE0B08E9
S31508006140E9DE0B0899900408E9DE0B08D31F0C0852
S31508006150DD5E0808E9DE0B0879430F087F430F0860
S31508006160E9DE0B08E9DE0B08E9DE0B08E9DE0B08B9
S31508006170194A5AB3194BDB6913F0040F29D110B425
S315080061800AE003EA00048C4210D0013AB2B1134B7C
S31508006190DB6913F0040F14D110F0010FF1D1104C84
S315080061A01C40002CEDD06FF001000CE00C4A1A40A0
S315080061B00AB9002007E06FF0010004E06FF0020062
S315080061C001E04FF0FF305DF8044B70476FF00200B6
S315080061D070474FF0FF3070478096980000000350D4
S315080061E0020001000D4BDB6913F4803F12D170B534
S315080061F00A4B03F580560124F46003F500552C6418
S315080062004FF480721A6100212046FFF7B1FF34640B
S31508006210EC6070BD6FF00100704700BF00000350CE
S3150800622010B5124B4FF480329A6603F51C33DC69BD
S31508006230144041F67132DA6303F580520121D160C8
S31508006240586102221A6100212120FFF791FF40B10F
S31508006250074B0122DA601CB1A3F500530022DA636A
S3150800626010BD00212120FFF783FFF1E700900050C1
S315080062700020035038B51A4B5861DB6913F0040F38
S315080062802AD10C4654F8041B154B9961151F06E0D4
S31508006290214651F8042B124B9A61043D0C465DB118
S315080062A008210846FFF764FF03460028F0D00C4A89
S315080062B004211161184638BD094B04221A610021D0
S315080062C02120FFF755FF03460028F3D1002121209E
S315080062D0FFF74EFF0346EDE74FF0FF33EAE700BF4F
S315080062E0000003502DE9F0410F46164605461A4BA5
S315080062F04FF480329A6603F51C33DA6902F4803863
S3150800630041F67132DA6303F580530122DA6000231D
S3150800631002E025442744361B8EB105F5005424F4C3
S31508006320FF5424F01F04641BB44228BF3446224697
S3150800633039462846FFF79EFF03460028E9D0074A54
S315080063400121D160B8F1000F03D0A2F50052002157
S31508006350D1631846BDE8F081009000500020035034
S31508006360000000000000000000000000000000001F
S31508006370013800D0FCE7704700000000000000006C
S315080063800B4A1168086806C881F30B88022181F355
S315080063901488203080F30988BFF36F8F4FF0000010
S315080063A080F31188104700BFAFF30080AFF3008079
S315080063B02454022000000000000000000000000035
S315080063C007480068006880F3088862B661B6BFF3BC
S315080063D04F8FBFF36F8F02DF00BF00BFAFF30080A0
S315080063E008ED00E0000000000000000000000000CA
S315080063F0EFF309801EF0100F08BF20ED108AEFF3A7
S315080064000B82734620E9FC0F114A116808604FF0A9
S31508006410300080F31188BFF34F8FBFF36F8F4DF0B5
S31508006420B1FF4FF0000080F31188094A1168086827
S31508006430B0E8FC0F13F0100F08BFB0EC108A82F317
S315080064400B8880F309881847AFF30080AFF3008004
S315080064502454022000000000000000000000000094
S315080064601EF0040F0CBFEFF30880EFF30980044910
S31508006470084700BFAFF30080AFF30080AFF300809A
S315080064800D53050800000000F0B591B006460C460D
S3150800649010468B680B2B00F2A680DFE803F006A4F3
S315080064A026A436A44862A47484940023049305930E
S315080064B004A985F08AFB054688B100202F4605B950
S315080064C058B9002385222146304685F0F1F93B4626
S315080064D0514A02211D20AFF097FA11B0F0BD04AA67
S315080064E02146304616F054FFE8E700238DF81030B1
S315080064F004A985F071FB054608B10020DEE704AA69
S315080065002146304616F0B4FED8E7002304930593D7
S315080065108DF8183004A985F066FB054608B10020F9
S31508006520CCE704AA2146304617F032F8C6E700231E
S31508006530049305938DF8183009930A939FED347BDD
S315080065408DED0C7BADF8383004A985F053FB054674
S3150800655008B10020B2E704AA2146304616F09AFC94
S31508006560ACE70023049305938DF8183004A985F049
S3150800657048FB054608B10020A0E704AA2146304694
S3150800658016F0B2FB9AE700230493059304A985F055
S315080065903FFB054608B1002090E704AA214630468D
S315080065A016F022FB8AE700238DF8103004A985F03F
S315080065B036FB054608B1002080E704AA2146304686
S315080065C016F096FA7AE700230493059304A985F052
S315080065D02DFB054608B1002070E704AA214630467F
S315080065E016F082F96AE700238122304685F060F9C1
S315080065F0A3686268110C92B2029201919AB2009253
S315080066001B0C064A01211D20AFF0FEF965E700BF05
S3150800661000000000000000006C620F0838620F08D6
S3150800662008B59FED077B80ED007B00228260C26083
S3150800663001744274114604F001FA08BDAFF30080F4
S3150800664000000000000000000023037043702023B0
S3150800665083700123C37000F1080300F1280203E0E8
S315080066609FED097BA3EC027B9342F9D100F1280345
S31508006670403004E04FF0FF321A605A600833834214
S31508006680F8D17047AFF3008000000000000000005A
S315080066909FED037B80ED007B00220272704700BFEE
S315080066A00000000000000000012800D0704708B56F
S315080066B04FF6FF73994200D008BD0F480F4B036091
S315080066C00F4B03600023436083600322C2600361AB
S315080066D043619FED077B80ED067B80F8203080EDD7
S315080066E00A7B084A0849EDF0D5FEE5E7AFF30080D6
S315080066F00000000000000000003D0020EC9D0F088F
S31508006700509E0F08307B022035FF0008000000006D
S31508006710016002719DED007B80ED027B0022027410
S315080067209FED0D7B80ED067B80F8202080ED0A7BAF
S3150800673080ED0C7B8263C263012180F8401080F8EB
S31508006740482080F8492080ED147B8265C265026680
S3150800675080F86420704700BF0000000000000000B9
S3150800676000220260012101729FED077B80ED047B08
S315080067700276C2610284426280ED0A7B80F830208C
S31508006780704700BFAFF30080000000000000000063
S3150800679000F130030022002A03DA00F14003002149
S315080067A014E000215970D97059609FED337B83ED51
S315080067B0027B013A1033EEE700225A70DA705A600B
S315080067C09FED2D7B83ED027B013910330029F3DA27
S315080067D000F150030022002A03DA00F19003002199
S315080067E014E000219970997199609FED237B83EDE0
S315080067F0047B013A1833EEE700229A709A719A6080
S315080068009FED1D7B83ED047B013918330029F3DAEC
S3150800681000F1A8030022002A03DA00F1D8030021B8
S3150800682014E000219970997199609FED137B83EDAF
S31508006830047B013A1833EEE700229A709A719A603F
S315080068409FED0D7B83ED047B013918330029F3DABC
S3150800685000F1F8030022002A00DA70470021997037
S31508006860997199609FED047B83ED047B013A183397
S31508006870F1E700BFAFF30080000000000000000051
S3150800688082B000228DF80120BDF8001001854185EF
S31508006890C2629FED097B80ED0C7B019201218DF888
S315080068A0061001998163C163026480ED127B02B010
S315080068B0704700BFAFF30080000000000000000032
S315080068C02DE9F04104460E4617463F4B03603F4B01
S315080068D043603F4B03602C33436000F108080025F2
S315080068E08560C560056145618561C56180F8205090
S315080068F0056345639FED327B80ED0E7B80F8405043
S31508006900344B00F1480C0FCB8CE80F00012384F8B8
S31508006910583041F2A453A4F85A30E56584ED187B43
S31508006920E56625672C4BA36684F8745004F17C034E
S31508006930C4F88030E367C4F8845004F190001FF06F
S31508006940F1FD84F8F85084F8F950244904F1FA0066
S3150800695091F01FFC84F8FC5084F8FD5084F8FE5032
S3150800696084F8FF5084F8005104F58273C4F808319E
S31508006970C4F80431C4F80C51314640468EF02CFB5D
S3150800698030468EF0C8FAA0B99FB10A9B8BB127632F
S3150800699006AB03CBA063E1631B7884F840300A9BFF
S315080069A0C4F88830012384F8F830231DC4F89C30D5
S315080069B002E0002384F8F8302046BDE8F08100BFE5
S315080069C0000000000000000084AA0F08A8AA0F080B
S315080069D0E0AA0F0848EC0120B8B110082C760F0879
S315080069E02DE9F0472DED028BCCB005460E461F4625
S315080069F000200021CDE92A01CDE92C0100248DF8DB
S31508006A00B8402F94CDE930019D4B32939D4B32937C
S31508006A104FF6FF73ADF810318DF812418DF813411A
S31508006A20289429949046002A62D02C4605F534729B
S31508006A30944210D094F8813073B123686168013BA1
S31508006A4041F1FF316FF0010098426FF010038B415E
S31508006A5002D39034ECE70024002C47D0BDF85C3113
S31508006A60ADF810318DF8B8609FED838B864B269371
S31508006A70864B269300222792814B1493814B1493BD
S31508006A800B920C920D924FF4C8710BA88FF075FEFD
S31508006A900B9B002B4DD04FF4C8710CA88FF06DFEE0
S31508006AA00C9B002B6AD04FF4C8710DA88FF065FEB9
S31508006AB00D9B002B64D00B9A0E924FF4C8710F9160
S31508006AC0002A5FD00C9A10924FF4C8711191002ACF
S31508006AD05AD012934FF4C87313930EAA3146284618
S31508006AE0A7F000FC002851D0044623E00B243BE025
S31508006AF031462846A7F087FB8146C0B105F53474B0
S31508006B0020468CF08CF9B9F88230ADF810318DF842
S31508006B10B86099ED028B0DF1200A494650469CF063
S31508006B20B3FB28AB9AE8030083E803009EE7AC248E
S31508006B301AE00B240D9818B12FF05CFB00230D9377
S31508006B400C9818B12FF056FB00230C930B9818B12C
S31508006B502FF050FB00230B934A4B1493484B149386
S31508006B604A4B2693484B2693464B3293444B3293D3
S31508006B7020464CB0BDEC028BBDE8F0870B24D9E764
S31508006B800B24D7E7EEF0C2FDEEF0C0FD10AA3146A1
S31508006B902846A7F088FB08B10446CBE712AA314677
S31508006BA02846A7F05CFB08B10446C3E70EA946A829
S31508006BB099F011FF10A948A899F00DFF12A94AA843
S31508006BC099F009FF32AB079314AB06932CAB0593E8
S31508006BD030AB04932AAB039326AB02938DED008B5F
S31508006BE04AAA48A946A825F073F908B10446A1E7B8
S31508006BF00D9818B12FF0FEFA00230D930C9818B1D2
S31508006C002FF0F8FA00230C930B9818B12FF0F2FA2C
S31508006C1000230B93E7B13B685B693846984714A98C
S31508006C208CF0BEF808B9C52496E72F979DF8583119
S31508006C308DF812319DF86031B3FA83F35B098DF84C
S31508006C4013312AA92046A7F0FDFD68B3044683E759
S31508006C50D5F8640330B303689B689847C0B1D5F884
S31508006C60640303685B6914AA314698470028E1D093
S31508006C70044671E7AFF30080000000000000000042
S31508006C80BC870F083882100818061008103010083C
S31508006C90D5F864030368DB68314698470028C9D1EC
S31508006CA0102459E7032457E728A92046A7F041FAF4
S31508006CB0B8F1000F23D094F881301A4A0221112026
S31508006CC0AEF0A2FE226963692068616802900191AC
S31508006CD00092154A02211120AEF096FE279905F575
S31508006CE05D7028F00BFE0346A8B9B8F1000F04D072
S31508006CF095F88233013385F8823300242CE794F81B
S31508006D0081302168626801910092084A02211120A7
S31508006D10AEF07AFEE2E7064A01211120AEF074FED3
S31508006D20E3E700BFEC2E10080C2F1008502F1008B0
S31508006D30882F1008000000002DE9F0438BB00546A7
S31508006D400C460DF11F030193152300934FF480722F
S31508006D5000230846ACF03EFF10B10BB0BDE8F08347
S31508006D6095F892300093012200232046ACF0B4FE39
S31508006D700028F2D195F8933000930222002320468A
S31508006D80ACF0AAFE0028E8D10DF10A0301931623F8
S31508006D900093032200232046ACF01CFF0028DCD118
S31508006DA005F1980605F594774FF000092EE04FF0A7
S31508006DB000099FED397B8DED007B042200232046D8
S31508006DC0ACF05CFE0028C8D1CDF80090052200235F
S31508006DD02046ACF081FE0028BFD103AB08931023F0
S31508006DE009930AAB13E903008DE803000622002382
S31508006DF02046ACF0D4FF0028AFD19DF90B102046F1
S31508006E00ACF021FF0028A8D13036C146BE422AD0B0
S31508006E10002303930493059306930DF10B03019343
S31508006E20152300934FF4807200232046ACF0D2FE5F
S31508006E30002892D109F101085FFA88F895F893308D
S31508006E404B45B4D996ED007BB6F808900DF10C0CBD
S31508006E50D6F80A00D6F80E10D6F81220D6F816304C
S31508006E60ACE80F00A7E79DF90A102046ACF0EBFE48
S31508006E7000287FF472AFB5F88A3000930722002302
S31508006E802046ACF029FE00287FF467AF9DF91F1055
S31508006E902046ACF0D8FE60E70000000000000000C5
S31508006EA04FF0FF310160002242609FED077B80EDC5
S31508006EB0047B8261C26102624262826280F82C109F
S31508006EC0C18580F8302070470000000000000000EF
S31508006ED000B583B09DF8101049B109219FED067BD6
S31508006EE08DED007BACF015FD03B05DF804FB0821C1
S31508006EF0F4E700BFAFF300800000000000000000C8
S31508006F0000B583B09FED047B8DED007B1421ACF0BA
S31508006F1000FD03B05DF804FB00000000000000005F
S31508006F2010B58CB00F9C14B900200CB010BD8DF8AC
S31508006F3018009FED0B7B8DED087B00200A900E98BC
S31508006F4005900493039202910CAB13E903008DE8B4
S31508006F50030006AB0FCBADF050F8E6E7AFF30080C1
S31508006F60000000000000000010B58AB000238DF86C
S31508006F7010309FED137B8DED067B089304AAADF0C8
S31508006F80E2FF10B92F200AB010BD2BF013FE0E49F0
S31508006F90ADF079FF32F044FC01460C4C2046ADF0CA
S31508006FA02EFC63680BB10A4A5A600AAB13E90F0054
S31508006FB08DE80F0004AB0CCB0448ADF0EAFBE2E722
S31508006FC000000000000000003C561008BCED01203F
S31508006FD0C0AC00200000000010B58AB000238DF870
S31508006FE010309FED137B8DED067B089304AAADF058
S31508006FF0AAFF10B92F200AB010BD2BF0DBFD0E49F1
S31508007000ADF041FF32F00CFC01460C4C2046ADF0C9
S31508007010F6FB63680BB10A4A5A600AAB13E90F001C
S315080070208DE80F0004AB0CCB0448ADF096FBE2E705
S31508007030000000000000000058561008BCED0120B2
S31508007040C0AC00200000000010B58AB000238DF8FF
S3150800705010309FED137B8DED067B089304AAADF0E7
S3150800706072FF10B92F200AB010BD2BF0A3FD0E49F0
S31508007070ADF009FF32F0D4FB01460C4C2046ADF0CA
S31508007080BEFB63680BB10A4A5A600AAB13E90F00E4
S315080070908DE80F0004AB0CCB0448ADF042FBE2E7E9
S315080070A0000000000000000074561008BCED012026
S315080070B0C0AC002000000000002202809FED027B89
S315080070C080ED027B026170470000000000000000AE
S315080070D008B5074B18680368D96903A3D3E90023E1
S315080070E0884708BDAFF3008000E0373B015D030029
S315080070F0F08202200000000030B587B00446C3784D
S31508007100012B33D18378042B35D190F8B930002B75
S3150800711035D0274B0093002301939FED237B8DEDFC
S31508007120027B0A6805920B6005A96846B1F04AFE1B
S315080071300546059808B13BF07FF90023059315BB72
S31508007140D4F8A030019A9A4222D10623238000233C
S3150800715084F8B930019BC4F8A430DDE90223C4E9F8
S315080071602423134B0093134B009302E0182134F0A9
S31508007170D3FD07B030BD182134F0CEFDF9E718214C
S3150800718034F0CAFDF5E71621204634F0C5FD03E0C4
S315080071901721204634F0C0FD054B0093054B00939C
S315080071A0E7E700BFAFF30080000000000000000022
S315080071B0E89210084092100810B58EB00446807800
S315080071C018B1032420460EB010BDE170C4F8AC30E7
S315080071D0137823715388E38092ED027B84ED047B58
S315080071E0D2E90401C4E90601254B0093254B009317
S315080071F000238DF804308DF805308DF80630ADF88B
S3150800720008309FED1D6B8DED046B8DED066B0893B5
S31508007210ADF824300A930B930C9313788DF8043049
S31508007220E388ADF808308DED047BCDE90601936956
S315080072300893938BADF82430136A0A93536A0B9319
S3150800724004F124016846B2F0C8F820B1044668463D
S3150800725034F022FCB6E7E078012800D004200223A7
S31508007260A370012384F8B93004F188022146B1F0ED
S315080072705EFF0024EBE700BF0000000000000000EE
S31508007280409210085C9210082DE9F047D0B00646E7
S315080072900D460E2214AB09E09FED657B83ED007B5E
S315080072A04FF0000C83F808C0013A1033002AF3DACD
S315080072B03368DB6912A9304698470446002840F02F
S315080072C0A28000220D9202AB0292039204923268C7
S315080072D00093176B05AB0EAA29463046B84788B9FE
S315080072E033689B6A0EA93046984768B1A0280BD028
S315080072F02A68019000926B684F4A01210B20AEF074
S3150800730083FB01E0A0280BD133685B6B2946304626
S315080073109847824608B1A0280CD14FF0000921E011
S315080073202A68019000926B68444A01210B20AEF04E
S315080073306BFBE9E72B68019000936B68404A0121D3
S315080073400B20AEF061FBE8E750AA02EB041252F8F4
S31508007350F01C52F8EC2C2F686868824208BFB942C4
S315080073601DD00134129BA3423FD9B9F1000FEBD0CF
S31508007370631C12A91B01083301EB030E2201083214
S3150800738001EB020C51F80380DEF8043041F8028064
S31508007390CCF804309EF808308CF80830E1E7621C17
S315080073A050A901EB021212F8F81C2A7A9142D8D198
S315080073B0621C9A4214D212A81201083200EB020E7D
S315080073C02101083100EB010C50F80280DEF8042098
S315080073D040F80180CCF804209EF808208CF8082094
S315080073E0013B12934FF00109BBE7B9F1000F14D026
S315080073F033689B6912A930469847034638B9002472
S3150800740005A8A9F0AAFF204650B0BDE8F0870D4AA6
S3150800741001210B20AEF0F8FAF1E72B68CDF804A0AD
S3150800742000936B68084A01210B20AEF0EDFAE6E7F7
S315080074300000000000000000C89D10080C9E1008FF
S31508007440689E1008AC9E1008DC9E1008000000001C
S315080074509FED037B80ED007B00220272704700BF20
S3150800746000000000FBFFFFFFA1F10801F0E700BFE5
S315080074709FED037B80ED007B00220272704700BF00
S315080074800000000000000000A1F10801F0E700BFBD
S31508007490002303704370837000F108030E2207E08F
S315080074A09FED0D7B83ED007B00219960013A18332F
S315080074B0002AF5DA00F5B873012207E09FED067B8E
S315080074C083ED007B00219960013A1833002AF5DA2A
S315080074D0704700BFAFF30080000000000000000006
S315080074E00A7B9FED037B80ED007B0272704700BF2D
S315080074F000000000000000009FED037B80ED007B8C
S31508007500704700BFAFF300800000000000000000D5
S3150800751010B588B0002300930193029303930221C8
S315080075208DF8101041F2A451ADF8121005939FED95
S31508007530067B8DED067B406801688C686946A04726
S3150800754008B010BDAFF30080000000000000000086
S3150800755070B58AB0844614461D46EE460FC98EE8B5
S315080075600F0001268DF8106041F2A453ADF81230D1
S31508007570002305939FED0C7B8DED067BADF812403D
S315080075802D68099505959EE80F008CE80F008CF884
S315080075901060ACF81240CCF814508CED067B6046AF
S315080075A00AB070BDAFF300800000000000000000C4
S315080075B010B5154C20600022626004F11003A36028
S315080075C0124B1A600B221A711A225A714AF064F881
S315080075D0204649F0A1F80E4B186068B108A3D3E914
S315080075E000234FF0FF304FF0FF3149F0E1F800215A
S315080075F0064849F0EFF810BDFEE700BFAFF300807C
S315080076000BE020FFE2030000584A0220504A0220FD
S315080076107047022000000000F0B589B0022048F04B
S315080076206DFE00B9FEE7684B1B68002B51D0102091
S3150800763048F064FE644C23681B798DF81F30634D4F
S3150800764001231A460DF11F012868ECF012F921688A
S315080076509DF81F20023A002392B209682868ECF0C8
S3150800766008F904AB5A4A07CA83E8070023681B6867
S315080076701B7813F0200F2DD10024544B1868EBF01B
S315080076804FFF002849D19DF81F200632069B03EBC1
S31508007690421306934C4B1A685369002B6DD1102080
S315080076A048F02CFE00285ED0069B03F5FA73069375
S315080076B0454B1A68117E474B997047490978D97026
S315080076C0917904AA0092224640480068EBF07AFCB9
S315080076D067E0FEE72868EBF007FF20B9069BC03392
S315080076E006930124C9E72868EBF0FEFE81F0DEFB6D
S315080076F002460B4630A1D1E9000181F07BFD044624
S315080077000D46069881F0D2FB22462B4681F092FA66
S3150800771081F0E0FE06900124AFE79DF81F000630D1
S31508007720C00081F0D3FB26A3D3E9002381F038FCFF
S3150800773006460F46254B1868EBF0F2FE81F0B6FBBD
S3150800774002460B463046394681F054FD06460F463A
S31508007750069881F0ABFB32463B4681F06BFA81F026
S31508007760B9FE069096E7184B196804AB2246897944
S3150800777016480068EBF010FC13E011690B44A03BB7
S31508007780029300238DF80C308DF80D30917904ABF7
S315080077900193124B009302AB22460C480068EBF0AB
S315080077A01CFC08B909B0F0BD4FF48051002048F020
S315080077B027FFBDF0F7FAF5E70000000060E3664131
S315080077C00000000080842E41FC4A022070470220F7
S315080077D070E510087C830220CF8502207083022082
S315080077E0F0B585B004460E4615461F461EA3D3E9D6
S315080077F0002381F0DFFE1E4BA3424FF00003B34186
S315080078001AD303941B4903A8C9F0E3FE04464EF6AF
S31508007810602103A8C9F0DDFE06464FF47A7103A875
S31508007820C9F0D7FE00903346224613492846C9F0C8
S31508007830ECF97FB905B0F0BD024610492846C9F0F3
S31508007840E4F909A3D3E900232046314681F0B2FEC4
S315080078501446D6E7BDF80C2009492846C9F0D5F9DB
S31508007860E8E700BFAFF30080005C260500000000D3
S31508007870FF5B260580EE3600A036110898361108FB
S31508007880B036110800000000002370B5404C0546CC
S315080078908AB0E36318B1008823606FF0D9FB3D48CE
S315080078A0EBF0E2FD3C4E3D4B304633603C4B73609B
S315080078B06BF020F80021304676F084FB32A3D3E93A
S315080078C00023A062C4E90623E8F071FAD4E9062386
S315080078D019431043C4E90601CDE900014FF0FF330F
S315080078E04FF0FF32A06AEBF086FE02224FF0FF311E
S315080078F0A06AEBF09AFE01206FF02AF94FF40073A4
S3150800790000222849A06AEBF0CAFFB0F5007F38D1FB
S3150800791000239422CDE9073309933C23CDE90332AA
S3150800792005939623A06A03A9069376F083FF35B3D9
S31508007930287C6FF00DFD0546F0B9A06AECF099F9C0
S315080079406FF0B4FC6FF0E6F820B14FF480700021B8
S315080079506DF04EFA6FF0EEF820B14FF4006000219A
S315080079606DF046FAE8F0DDFA0120EBF010FB0E4A5E
S315080079700E49A06AE8F00FFA28460AB070BDFF2043
S31508007980D7E70725F8E700BF0DD501552000000009
S3150800799090770120690345EC0C660220D569070833
S315080079A01C6602200C6402203FFD0E087FFD0E08AF
S315080079B00348044B834202D0034B03B11847704770
S315080079C0EC860220EC86022000000000064B0749E0
S315080079D0C91A891048BF0131491003D0044B0BB1AD
S315080079E001481847704700BFEC860220EC86022043
S315080079F00000000010B5064C237843B9FFF7D8FFFE
S31508007A00044B13B10448AFF300800123237010BD63
S31508007A108A700220000000007CBC110808B5054BDE
S31508007A201BB105490548AFF30080BDE80840FFF7DC
S31508007A30CDBF00BF00000000107D01207CBC1108EE
S31508007A40A3F5803A704700BF174B002B08BF134BAE
S31508007A509D46FFF7F5FF00218B460F461348144A4B
S31508007A60121AEEF0E5F80E4B002B00D098470D4B96
S31508007A70002B00D098470020002104000D000D4877
S31508007A80002802D00C48EDF048FE83F0A3FC200045
S31508007A902900E4F0CBFF82F06DFC00BF000008006F
S31508007AA00000000000000000001200200012002064
S31508007AB0207902201B570F080000000008B5002295
S31508007AC001210248BBF0D5FA08BD00BF7C7F022021
S31508007AD008B50348B6F050FB0248B6F04DFB08BDA2
S31508007AE0F0610F08D8610F0808B50348B6F07AFBAD
S31508007AF00248B6F077FB08BD20620F0808620F0837
S31508007B0018B1034A1060002070472520704700BF4F
S31508007B10287D012010B5044C044920683EF058FC25
S31508007B202068FFF7EDFF10BDD8800220AC7F022049
S31508007B30F0B58DB005460C4610468B68ABB1022BE6
S31508007B4038D000238122284683F0B2FEA3686268F3
S31508007B50110C92B2029201919AB200921B0C1C4A25
S31508007B6001211D20ADF050FF1CE00023059306936C
S31508007B700793089309930A930B9305A983F0A5FE27
S31508007B80064688B10020374606B958B9002385222B
S31508007B902146284683F08CFE3B460E4A02211D20CC
S31508007BA0ADF032FF0DB0F0BD05AA214628460EF00D
S31508007BB06DFFE8E705A983F08FFE064608B10020A9
S31508007BC0E1E705AA214628460EF018FFDBE700BFC5
S31508007BD038620F086C620F08F0B589B005460C4686
S31508007BE010468B684C2B00F22182DFE813F04D001B
S31508007BF075008B00A300B900CF00E700FF0017014E
S31508007C002D0145011F021F021F021F021F021F022C
S31508007C101F021F021F021F021F021F021F021F024E
S31508007C201F021F021F021F021F021F021F021F023E
S31508007C301F021F021F021F021F021F021F021F022E
S31508007C401F021F021F021F021F021F021F021F021E
S31508007C501F021F021F021F021F021F021F021F020E
S31508007C601F021F021F021F021F021F021F025B01C3
S31508007C7073018901A101B9011F021F02D5011F0263
S31508007C801F021F02E901030200238DF814308DF844
S31508007C901530ADF816308DF818308DF8193005A95D
S31508007CA083F021FE064688B10020374606B958B942
S31508007CB0002385222146284683F0FAFD3B46BF4A23
S31508007CC002211D20ADF0A0FE09B0F0BD05AA21468F
S31508007CD0284696F0AEF8E8E700238DF814308DF8BC
S31508007CE015308DF816308DF8173005A983F002FE89
S31508007CF0064608B10020D8E705AA2146284696F088
S31508007D00ADFBD2E700238DF814308DF815308DF8C9
S31508007D1016308DF817308DF8183005A983F0F1FD67
S31508007D20064608B10020C0E705AA2146284696F06F
S31508007D3068F9BAE700238DF81430ADF816308DF8D7
S31508007D4018308DF8193005A983F0E2FD064608B10A
S31508007D500020AAE705AA2146284695F058FEA4E77A
S31508007D6000238DF814308DF815308DF816308DF8FF
S31508007D70173005A983F0D3FD064608B1002094E71D
S31508007D8005AA2146284696F0FBF98EE700238DF8CA
S31508007D9014308DF815308DF816308DF817308DF8AB
S31508007DA0183005A983F0C2FD064608B100207CE715
S31508007DB005AA2146284696F081FA76E700238DF82B
S31508007DC014308DF81530ADF816308DF818308DF85A
S31508007DD0193005A983F0B1FD064608B1002064E70D
S31508007DE005AA2146284695F000FF5EE70023ADF870
S31508007DF01430ADF81630ADF818308DF81A308DF805
S31508007E001B3005A983F0A0FD064608B100204CE703
S31508007E1005AA2146284696F0F5FB46E70023ADF865
S31508007E201430ADF816308DF818308DF8193005A9CC
S31508007E3083F091FD064608B1002036E705AA2146DB
S31508007E40284696F0A3FC30E70023ADF81430ADF8C9
S31508007E501630ADF818308DF81A308DF81B3005A994
S31508007E6083F080FD064608B100201EE705AA2146D4
S31508007E70284696F04DFD18E70023ADF81430ADF806
S31508007E8016308DF818308DF8193005A983F071FD74
S31508007E90064608B1002008E705AA2146284696F0B6
S31508007EA0DEFD02E70023ADF814308DF81630ADF884
S31508007EB018308DF81A308DF81B3005A983F060FD4F
S31508007EC0064608B10020F0E605AA2146284695F0A0
S31508007ED0CAFFEAE600238DF81430ADF816308DF89F
S31508007EE018308DF8193005A983F051FD064608B1FA
S31508007EF00020DAE605AA2146284696F0C7FAD4E60F
S31508007F0000238DF81430ADF81630ADF818308DF81A
S31508007F101A308DF81B3005A983F040FD064608B1D6
S31508007F200020C2E605AA2146284696F084F8BCE653
S31508007F300023ADF814308DF81630ADF818308DF8EA
S31508007F401A308DF81B3005A983F02FFD064608B1B7
S31508007F500020AAE605AA2146284695F060FEA4E672
S31508007F6000238DF814308DF815308DF81630ADF8DD
S31508007F701830ADF81A308DF81C308DF81D3005A96B
S31508007F8083F01AFD064608B100208EE605AA2146AA
S31508007F90284697F062F888E600238DF814308DF8A5
S31508007FA0153005A983F00FFD064608B100207CE6CA
S31508007FB005AA2146284695F062F976E66C620F080E
S31508007FC000238DF81430ADF81630ADF81830ADF83A
S31508007FD01A308DF81C308DF81D3005A983F0FAFC8F
S31508007FE0064608B1002060E605AA2146284696F00E
S31508007FF009FE5AE600238DF81430ADF81630ADF8B0
S315080080001830ADF81A30ADF81C308DF81E308DF8E2
S315080080101F3005A983F0E5FC064608B1002044E6B2
S3150800802005AA2146284696F0C9FE3EE60023812287
S31508008030284683F03DFCA3686268110C92B202924E
S3150800804001919AB200921B0C024A01211D20ADF043
S31508008050DBFC39E638620F08F0B58BB006460C46ED
S3150800806010468B68022B39D0042B4BD09BB10023CA
S315080080708122304683F01CFCA3686268110C92B218
S31508008080029201919AB200921B0C254A01211D20E9
S31508008090ADF0BAFC1AE0ADF8103000220023CDE9A5
S315080080A0062304A983F0A4FC054688B100202F46C0
S315080080B005B958B9002385222146304683F0F8FBD6
S315080080C03B46184A02211D20ADF09EFC0BB0F0BDC0
S315080080D004AA2146304610F009FBE8E7002304937A
S315080080E00593069307930893099304A983F087FCDD
S315080080F0054608B10020DAE704AA2146304610F002
S315080081003BFCD4E704A983F081FC054608B10020AE
S31508008110CDE704AA2146304610F074FBC7E700BF36
S3150800812038620F086C620F08F0B589B005460C4630
S3150800813010468B68ABB1012B37D000238122284625
S3150800814083F0B6FBA3686268110C92B202920191A1
S315080081509AB200921B0C1B4A01211D20ADF054FC5B
S315080081601BE000230493059300220023CDE9062390
S3150800817004A983F052FC064688B10020374606B9A2
S3150800818058B9002385222146284683F091FB3B46B1
S315080081900D4A02211D20ADF037FC09B0F0BD04AA36
S315080081A02146284697F093FEE8E704A983F03CFCAD
S315080081B0064608B10020E1E704AA2146284610F041
S315080081C02FFEDBE738620F086C620F08F0B59DB02A
S315080081D006460C4615468B68042B57D8DFE803F08D
S315080081E00326563748006022002104A8EDF020FD3A
S315080081F004A9284683F01FFC054688B100202F46AF
S3150800820005B958B9002385222146304683F050FB2C
S315080082103B46284A02211D20ADF0F6FB1DB0F0BDF5
S3150800822004AA2146304611F01FF8E8E70023ADF806
S31508008230103004A9284683F005FC054608B100203D
S31508008240DDE704AA2146304611F004F9D7E70023F2
S31508008250ADF8103004A9284683F0FBFB054608B1A3
S315080082600020CCE704AA2146304610F06BFFC6E78B
S3150800827004A9284683F0F4FB054608B10020BEE7AA
S3150800828004AA2146304611F053F9B8E700238122A3
S3150800829083F00EFBA3686268110C92B202920191F8
S315080082A09AB200921B0C044A01211D20ADF0ACFBCA
S315080082B0B4E700BF6C620F0838620F08F0B595B0D6
S315080082C006460C4615468B68052B7BD8DFE803F077
S315080082D00326374859670023ADF8103005930693EF
S315080082E004A9284683F0C3FB054688B100202F461B
S315080082F005B958B9002385222146304683F0D8FAB5
S315080083003B463A4A02211D20ADF07EFB15B0F0BD72
S3150800831004AA2146304698F067FEE8E70023ADF840
S31508008320103004A9284683F0A9FB054608B10020A9
S31508008330DDE704AA2146304698F075FED7E704A87B
S3150800834083F0A3FB04A9284683F0ACFB054608B1D5
S315080083500020CCE704AA2146304611F041FBC6E7C7
S315080083600023ADF8103004A9284683F0A2FB054681
S3150800837008B10020BBE704AA2146304698F0B4FEAF
S31508008380B5E704A9284683F09BFB054608B10020FB
S31508008390ADE704AA2146304611F082FAA7E7002382
S315080083A0ADF810300593069304A9284683F08FFB91
S315080083B0054608B100209AE704AA2146304698F0F7
S315080083C0E9FD94E70023812283F072FAA3686268C4
S315080083D0110C92B2029201919AB200921B0C044AB5
S315080083E001211D20ADF010FB90E700BF6C620F085D
S315080083F038620F08F0B587B005460C4610468B68FC
S31508008400ABB1402B33D000238122284683F050FAA3
S31508008410A3686268110C92B2029201919AB2009214
S315080084201B0C1C4A01211D20ADF0EEFA17E00023B3
S31508008430ADF8143005A983F051FB064688B1002033
S31508008440374606B958B9002385222146284683F0BF
S315080084502FFA3B46104A02211D20ADF0D5FA07B087
S31508008460F0BD05AA2146284698F01DFFE8E7002337
S315080084708DF814308DF8153005A983F036FB0646BD
S3150800848008B10020DCE705AA2146284611F0C2FB00
S31508008490D6E700BF38620F086C620F08F0B587B0E0
S315080084A006460C4610468B68072B00F2C280DFE8AA
S315080084B003F0042A40586A8096AE00238DF81030DF
S315080084C08DF814308DF816308DF8173004A983F01E
S315080084D013FB054688B100202F4605B958B9002375
S315080084E085222146304683F0E3F93B465B4A022162
S315080084F01D20ADF089FA07B0F0BD04AA2146304622
S3150800850099F000F8E8E700238DF810308DF812305E
S315080085108DF813308DF8143004A983F0F4FA054663
S3150800852008B10020D8E704AA2146304612F0B4F96B
S31508008530D2E700238DF810308DF811308DF81430FD
S315080085408DF816308DF8173004A983F0E3FA05463E
S3150800855008B10020C0E704AA2146304612F018F8F0
S31508008560BAE700238DF810308DF8113004A983F08E
S31508008570D8FA054608B10020AEE704AA21463046D7
S3150800858012F0D4FDA8E700238DF810308DF81430CA
S315080085908DF816308DF8173004A983F0C9FA054608
S315080085A008B1002098E704AA2146304611F0A4FE37
S315080085B092E700238DF810308DF812308DF81330BD
S315080085C08DF8143004A983F0BAFA054608B10020DC
S315080085D082E704AA2146304612F0A6F97CE7002372
S315080085E08DF810308DF811308DF814308DF816305E
S315080085F08DF8173004A983F0A9FA054608B10020BA
S315080086006AE704AA2146304612F00AF864E700230E
S315080086108DF810308DF8113004A983F09EFA0546BE
S3150800862008B1002058E704AA2146304612F0A2FDF8
S3150800863052E700238122304683F03AF9A36862683C
S31508008640110C92B2029201919AB200921B0C044A42
S3150800865001211D20ADF0D8F94DE700BF6C620F0867
S3150800866038620F0870B58CB005460C468B6833BB6C
S3150800867000200021CDE90401ADF818308DF81A3034
S315080086808DF81C30ADF8283004A9104683F06CFA32
S31508008690064670B1002036B30023852221462846B7
S315080086A083F006F93346114A02211D20ADF0ACF9D4
S315080086B017E004AA2146284617F0CCFBEBE700236F
S315080086C0812283F0F5F8A3686268110C92B20292CF
S315080086D001919AB200921B0C054A01211D20ADF0AA
S315080086E093F90CB070BD0028FBD1D5E76C620F0872
S315080086F038620F08F0B587B006460C4610468B68F8
S31508008700402B51D024D8012B3BD0022B07D104A9EA
S3150800871083F03FFA0546002840D0002007E0002BEA
S3150800872067D104A983F027FA054620B300202F460F
S3150800873005B958B9002385222146304683F0B8F892
S315080087403B46364A02211D20ADF05EF907B0F0BD62
S31508008750412B3BD0422B4CD100238DF81030ADF87D
S315080087601230ADF8143004A983F028FA054600281B
S3150800877039D00020DBE704AA214630469AF0CEFB22
S31508008780D5E704A983F0FEF9054608B10020CEE72F
S3150800879004AA214630469AF0CBFBC8E704AA21462C
S315080087A030469AF0CFFBC2E700238DF810308DF8DB
S315080087B0113004A983F0F4F9054608B10020B6E79C
S315080087C004AA214630469AF0C7FBB0E704A983F00D
S315080087D0EEF9054608B10020A9E704AA2146304665
S315080087E09AF0C6FBA3E704AA214630469AF0D3FBC3
S315080087F09DE7002381222146304683F059F8A36875
S315080088006268110C92B2029201919AB200921B0C04
S31508008810034A01211D20ADF0F7F897E76C620F08AF
S3150800882038620F0870B586B005460C468B68D3B912
S3150800883005A9104683F001FA064670B1002036B342
S31508008840002385222146284683F032F83346114A0A
S3150800885002211D20ADF0D8F817E005AA21462846C2
S315080088601AF0C4FFEBE70023812283F021F8A368FE
S315080088706268110C92B2029201919AB200921B0C94
S31508008880054A01211D20ADF0BFF806B070BD0028CD
S31508008890FBD1D5E76C620F0838620F0830B583B094
S315080088A00446154643683F2B25D8032B6FD3DA1E9B
S315080088B03C2A6CD8DFE802F047416B596B4D6B6B6D
S315080088C06B6B6B6B6B6B6B6B6B6B6B6B6B6B6B6BEA
S315080088D06B6B6B6B6B6B6B6B6B6B6B6B6B6B6B53F2
S315080088E06B6B6B6B6B2F6B6B356B656B6B6B6B6B42
S315080088F06B286B5F3B00B3F5407F48D10A460146BB
S315080089002846FFF769F904E00A4621462846FFF794
S315080089100FF903B030BD0A4621462846FFF79CFBEF
S31508008920F7E70A4621462846FFF7FEFBF1E70A461F
S3150800893021462846FFF74AFCEBE70A462146284621
S31508008940FFF7BCFCE5E70A4621462846FFF752FD35
S31508008950DFE70A4621462846FFF7A0FDD9E70A467B
S3150800896021462846FFF77EFED3E70A4621462846D3
S31508008970FFF7C0FECDE70A4621462846FDF784FDE7
S31508008980C7E70A4621462846FFF74CFFC1E79AB2D1
S3150800899000921B0C054A01211D20ADF035F8002375
S315080089A0C3222146284682F083FFB2E798620F0861
S315080089B040F25343984235D015D8992820D040F232
S315080089C00113984207D129293ED81A291DD201290F
S315080089D022D8012070473C2803D1022930D801202B
S315080089E070470020704740F20E53984220D0194B2A
S315080089F0984203D1122921D00020704700207047E1
S31508008A00013906291ED8012070471A394FF2091074
S31508008A10C84000F001007047032901D000207047C4
S31508008A2001207047012901D90020704701207047AD
S31508008A3061B1023901290BD900207047012070471E
S31508008A4000207047002070470020704701207047BB
S31508008A500120704705FCF1FF10B5164C4FF4E4727F
S31508008A6000212046EDF0E4F80923236163611249E9
S31508008A70A161124BE3614FF4806222620023A36274
S31508008A806362E362C4F8F0100D49C4F8F410C4F840
S31508008A90F820C4F80031C4F8FC30C4F8043106E004
S31508008AA0C3F10F020749895C024AD15401330F2BDF
S31508008AB0F6D910BD8C850120B4620F088C8101207F
S31508008AC08C7D0120C0620F082DE9F04704468846D0
S31508008AD09146274B1B78DBB2532B1BD104EB440280
S31508008AE0234B03EBC203D3F80071D3F8FC50AF4213
S31508008AF013D80026ED1B4D4528BF4D4645BB36B15C
S31508008B0004EB44041A4B03EBC403C3F80071304664
S31508008B10BDE8F087FFF7A0FFE0E71346144A02EB2B
S31508008B20C30ADAF8F860F61B4E4528BF4E46DAF84F
S31508008B30F410324639444046EDF025F9B044A9EB25
S31508008B4006093744DAF8F830BB42D3D10027D1E713
S31508008B5004EB4402064B03EBC203D3F8F4102A468F
S31508008B6039444046EDF00FF92E442F44C7E700BFBD
S31508008B708C850120F8B50F461646451C05EB4505BC
S31508008B80164B03EBC50500EB400003EBC003DC6A9C
S31508008B90012C11D0022C1CD014B100242046F8BD9B
S31508008BA0284689F082F98642F8D832463946284658
S31508008BB089F087F93446F1E7284689F076F934468C
S31508008BC0864228BF044622463946284689F079F95E
S31508008BD0E4E7284689F097F90446DFE78C85012003
S31508008BE0F8B504460D4616460A4B1B78DBB2532BDE
S31508008BF00DD1EFF311874FF0200181F3118832462A
S31508008C0029462046FFF7B6FF87F31188F8BDFFF718
S31508008C1023FFEEE78C850120F8B504460F46164675
S31508008C201D46194B1878C0B2532826D1082C27D8C8
S31508008C30EFF311834FF0200181F3118894B1124AA2
S31508008C40601C00EB4001C900575000EB400002EBE6
S31508008C50C000466004EB440102EBC1021562002124
S31508008C609162516204EB4404074A02EBC402069976
S31508008C70D16283F311880020F8BDFFF7EDFED5E732
S31508008C804FF0FF30F8E700BF8C850120F8B50446A1
S31508008C900F4616461D46184B1878C0B2532824D1DD
S31508008CA0082C25D8EFF311804FF0200181F31188A5
S31508008CB07CB104EB4402104B03EBC203C3F8F0701B
S31508008CC0C3F8F460C3F8F8500022C3F80021C3F8CB
S31508008CD0FC2004EB4404084B03EBC403069AC3F8D0
S31508008CE0042180F311880020F8BDFFF7B5FED7E709
S31508008CF04FF0FF30F8E700BF8C85012038B50446F1
S31508008D000D460E4B1B78DBB2532B11D1082C12D80B
S31508008D10EFF311824FF0200181F3118804EB44042C
S31508008D20064B03EBC403DD6282F31188002038BDCD
S31508008D30FFF792FEEAE74FF0FF30F8E78C8501204F
S31508008D4001282DD002461C4880FB02301044D31758
S31508008D50C3EBA003981C202A12D000B500EB420CE6
S31508008D604FEA4C0C0CF1010C03F1010E4FEA4E0EC2
S31508008D709CFBFEFC4FEA4C0C013392000A3209E0D8
S31508008D804FF01A0C013392000A320FE0CA54013B25
S31508008D90A2EB0C02002BF9DC06230B705DF804FB32
S31508008DA000207047CA54013BA2EB0C02002BF9DCE9
S31508008DB006230B70704700BF93244992B1F5004F04
S31508008DC03CD208B5012808D00238062828D8DFE89A
S31508008DD000F014271D2727241F0001EB81014900F5
S31508008DE0023100F1553080FB0130A0EBE17000281C
S31508008DF01DDBB0F5004F24DA08BD01EB810301EB5A
S31508008E004301013101EBD1714810F0E7C800EEE7E4
S31508008E1001EB410001EB8000E9E709B91820E8E712
S31508008E20094B0A4A40F25F31094881F07DFA094B3D
S31508008E30064A40F26231064881F076FA4FF0FF3072
S31508008E4070474FF0FF30D7E7D4620F088C6A0F08D7
S31508008E50DC620F0818630F0808B54B1E272B0FD8BE
S31508008E600731174B83FB0123C917C1EBE30101380F
S31508008E7007281CD8DFE800F00B0F1B131B1B221753
S31508008E80104B114A40F2F231104881F04DFA104B5E
S31508008E9053F8210008BD0F4B53F82100FAE70E4B93
S31508008EA053F82100F6E70D4B53F82100F2E70C4B77
S31508008EB0054A40F2FA31054881F036FA0020E9E71A
S31508008EC07978787824630F08446A0F08DC620F08FB
S31508008ED0386A0F082C6A0F08206A0F08146A0F08E8
S31508008EE0D4620F082DE9F04789469246804608B3B2
S31508008EF0002425464C453DD2220108EB04135E6842
S31508008F00DF68B6F5004F20D2B7F5004F24D2514698
S31508008F1018F80200FFF7A0FF102824D80123834081
S31508008F20B34234DD043038440544B5F5004F31DA30
S31508008F300134DFE711B90C460025DBE7174B184A61
S31508008F4040F2DB31174881F0EFF9174B144A4FF41A
S31508008F507871144881F0E8F9144B114A40F2E1316E
S31508008F60104881F0E1F9124B0D4A40F2E3310D4801
S31508008F7081F0DAF9B5F5004F02D22846BDE8F08748
S31508008F800C4B074A40F2EA31064881F0CDF94FF01A
S31508008F90FF35F2E74FF0FF35EFE700BF6C630F08C8
S31508008FA0586A0F08DC620F0888630F08B0630F0859
S31508008FB0DC630F08F8630F0838B5102905D830FAAE
S31508008FC001F402D101F1FF3E18E00E4B0E4ABA2118
S31508008FD00E4881F0A9F91968CD10545D20FA0EFCE7
S31508008FE00CF0010CC94301F007010CFA01F1214309
S31508008FF051550EF1FF3E196801311960BEF1000F97
S31508009000E9DA38BD1C640F08EC690F08DC620F0842
S3150800901008B5431E272B22D8024600F1080300FB99
S3150800902003F304331801012A13DD144B83FB0213DF
S315080090301344D117C1EBA301023101EB810303EB02
S3150800904083030A3B01FB03F3373BC01A062A00DDFC
S315080090502438A0F1D003B3F5E64F07D808BD084B6E
S31508009060084A4FF4AA71084881F05EF9074B054A89
S315080090704FF4AE71044881F057F900BF9324499222
S3150800908060640F0888690F08DC620F08A0640F087F
S3150800909038B5032914D805460C46FFF7B9FF00284A
S315080090A015DB04EB840304EBC3040A4B23445B5728
S315080090B0094A2244525702FB03F3C3EBE00038BDCA
S315080090C0064B074A40F24911064881F02DF9073048
S315080090D0E7E700BF486B0F08A46A0F08C4640F08C7
S315080090E0006A0F08DC620F0808B50378A3F1150CAF
S315080090F0BCF19C0F11D800290FDB8B420DDD002A2D
S315080091000BDB934209DD02FB031100EBE10001F0E2
S315080091100701407888F04FFF08BD034B034A40F229
S315080091200231034881F000F9D4640F086C690F080E
S31508009130DC620F0808B590F800C0ACF1150EBEF158
S315080091409C0F15D8002913DB8C4511DD002A0FDB8F
S3150800915094450DDD02FB0C1101F0070CC910013115
S315080091606BB1435C012202FA0CF21343435408BD67
S31508009170074B084A40F20B31074881F0D5F8425CA4
S31508009180012303FA0CF3DB435BB213404354EEE7C7
S31508009190D4640F0860690F08DC620F0808B54368D5
S315080091A001EB4101994207DB002B35DD82689A42C3
S315080091B009D00022104631E01B4B1C4A4FF433718C
S315080091C01B4881F0B1F8C16803EB4302914202D013
S315080091D00022104622E002699A4202D00022104676
S315080091E01CE042699A4202D00022104616E0016845
S315080091F04FEA830CB1EB830F04DB82699A4209DAE2
S31508009200002200E000228069844509DC994209DBD6
S31508009210012003E00122F6E700221046104408BDAB
S315080092200020FBE70020F9E724650F0828690F08E6
S31508009230DC620F082DE9F047441E1D2C0DD80746A1
S315080092400D46024600212846ECF0F2FC4FF00109D3
S3150800925005F804904FF0000A0DE0124B124A40F24E
S315080092606711124881F060F80221484688F088FEA6
S3150800927081460AF1010ABA4512DA0024BC42F3DA39
S3150800928005EB04084946285D88F07AFE285501341E
S31508009290BC42F3DA98F80130584088F80000EDE748
S315080092A0BDE8F08734650F08BC690F08DC620F0853
S315080092B02DE9F04F83B001900C9D03F1FF3ABAF106
S315080092C01D0F0AD88B4690461F461A460021284687
S315080092D0ECF0AEFC4FF0000913E0144B144A4FF4BF
S315080092E0C171144881F020F8314618F8040088F056
S315080092F047FE2B5D43402B550134BC42F4DB09F194
S315080093000109D9450EDA019B13F80960294611F8B7
S31508009310013B5E4052462846ECF070FC002405F8F6
S315080093200A40EAE703B0BDE8F08F00BF34650F08CE
S31508009330A0690F08DC620F082DE9F04F8FB0059081
S31508009340032A2CD80F4691461D46002927DD2829D1
S3150800935025DC02EB820302EBC3032F4A1A44545658
S315080093602E4A134413F901800846FFF751FE0028D8
S315080093701CDBC61049463846FFF78AFE049096FB62
S31508009380F4FA04FB1A66A31B0393AAEB080A06A9B8
S315080093904046FFF74FFF059F4FF0000B22E0204B9A
S315080093A0204A4FF49471204880F0BEFF0730E0E76A
S315080093B0F95CA95401332244B34204DA5345F7D180
S315080093C00399521AF4E7049B0BEB0302002304E00B
S315080093D019F80310A954013322444345F8DB3744EE
S315080093E00BF1010BA34514DA039B9B45B4BF564604
S315080093F00AF10106059B049A03EB0209CDF80090D1
S31508009400434606AA31463846FFF752FF5A46002316
S31508009410D2E70FB0BDE8F08FA46A0F08486B0F08B3
S3150800942070650F08D8690F08DC620F0808B528B1FF
S315080094300078A0F115039C2B07D808BD064B074AF0
S3150800944040F2EF21064880F06FFF064B034A40F2D0
S31508009450F121034880F068FFD8650F08E8680F080F
S31508009460DC620F08E8650F082DE9F04F85B0039018
S31508009470019117461046FFF7D9FF064600F1FF3A55
S31508009480D3464FF00008CDF808A036E04FF0050B9C
S3150800949039E0D1464A4629463846FFF725FE18B927
S315080094A0019BB8EBC30F0DDB0134012C1DDCABEBC4
S315080094B004050BF1010313F0020FEAD1029BA3EB9B
S315080094C00A09E7E74FEAE8036FEA080101F007012E
S315080094D0039AD05C88F06FFD03464A46294638460B
S315080094E0FFF728FE08F10108DEE70AF1010AB2458E
S315080094F001DA0024D9E7ABF1020BBBF1000F05DD59
S31508009500BBF1060FC2D04FF0000AF0E7019BB8EB9B
S31508009510C30F02D105B0BDE8F08F034B034A40F2F2
S315080095205721034880F000FF44660F0878690F0842
S31508009530DC620F082DE9F04F83B007468B46FFF72C
S3150800954075FF824607240CE000232246062138468A
S31508009550FFF7F0FD0023062221463846FFF7EAFD0D
S315080095600234AAF10703A342EEDC6FF003062DE0EE
S31508009570022B10D0042B0ED00134042C25DC84EAEF
S31508009580E472A2EBE47286EAE673A3EBE67393420F
S31508009590EEDC1346ECE7E51C06F1030900234A4610
S315080095A02946384688F00BFDAAF1040800234A46E6
S315080095B008EB0401384688F002FD002308EB060292
S315080095C02946384688F0FBFCD6E70136042E02DC2D
S315080095D06FF00304D1E769465846FFF7B1FB8146A9
S315080095E04FF0000838E01EB109F1FF33B34205D148
S315080095F001364E452EDAB8F1000FF4D009F1FF33E3
S31508009600434524D1002EF3D04FF0FF351AE0B5B10B
S3150800961000233846FFF78EFD0134012C11DC08F1D2
S3150800962008036B4413F8081C214406F108036B442D
S3150800963013F8082C2A44002CE9D00023E9E7012373
S31508009640E7E70135012DD3DC4FF0FF34E5E74FF0AE
S31508009650FF35F7E708F10108C84501DA0026C8E72B
S31508009660BBF1060F13DC03B0BDE8F08FE31241F639
S31508009670257101FB03F383EA440401320B2AF5DD65
S3150800968044EA0B345FEAA44904D1C84620E05C46A4
S315080096900022F3E7114B124A4FF4F971114880F092
S315080096A043FEAAF10B05354404F0010B5B4642461E
S315080096B029463846FFF73EFD5B462A464146384668
S315080096C0FFF738FD64100136022EEADD08F10108BD
S315080096D0B8F1050FC7DC4E46F6E700BF58660F0817
S315080096E044690F08DC620F082DE9F047D3B2072B4F
S315080096F008D88246884617460846FFF797FE8146E9
S315080097000026ACE0594B5A4A40F26121594880F08C
S315080097100BFE351985F0010505F00105324621468F
S315080097204046FFF7E1FC2B1A18BF012332462146B3
S315080097304046FFF7FFFC01344C4580F28F803246E5
S3150800974021465046FFF7D0FC0028F4D1072F7ED8D3
S3150800975001A353F827F000BF13970008799700086C
S31508009760839700089B970008B5970008D1970008CB
S31508009770FB9700082598000886F0010505F0010505
S31508009780CCE73D4D85FB0435A5EBE47505EB4505B2
S31508009790AC4214BF00250125C0E73519364B83FBBB
S315080097A00523A3EBE57303EB43039D4214BF002592
S315080097B00125B3E7304D85FB0435A5EBE47506EBCB
S315080097C0D67305EB630585F0010505F00105A5E7E8
S315080097D004FB06F2002A02F00103B8BF5B421946F1
S315080097E0254B83FB0203A3EBE27303EB4303D31A74
S315080097F0D9420CBF0125002590E704FB06F2002A92
S3150800980002F00105B8BF6D421B4B83FB0213A3EBA5
S31508009810E27303EB4303D31A1D4485F0010505F0F3
S3150800982001057BE7351905F0010548BF6D4204FBC4
S3150800983006F2114B83FB0213A3EBE27303EB43031C
S31508009840D31A1D4485F0010505F0010566E70B4BA3
S31508009850074A40F27121074880F066FD01364E45F9
S3150800986001DA002468E7BDE8F08700BF68660F08DC
S315080098701C690F08DC620F0856555555D4620F0847
S315080098802DE9F041CBB2072B08D815464A4B53F8B9
S31508009890203041EAC3010C4600220EE0474B484AF5
S315080098A040F20621474880F03FFD631240F23750E8
S315080098B000FB03F383EA44040132092AF5DD44EA8E
S315080098C0812484F4A84686F01206E41301D12746BB
S315080098D011E03D4B3A4A40F20D213A4880F024FD0A
S315080098E03946304688F067FB03463A46082128463B
S315080098F0FFF720FC0137052FF2DD0621304688F0F8
S315080099005AFB0346072208212846FFF713FC0721BE
S31508009910304688F050FB0346082211462846FFF7D2
S3150800992009FC0821304688F046FB03460822072131
S315080099302846FFF7FFFB09270BE03946304688F033
S315080099403AFB03460822C7F10E012846FFF7F2FB49
S3150800995001370E2FF1DD2846FFF768FD80460DE03A
S3150800996008F1FF373F1B2146304688F024FB0346A3
S31508009970082239462846FFF7DDFB0134072CEFDDC0
S3150800998008240DE0A8F10F0727442146304688F041
S3150800999012FB03463A4608212846FFF7CBFB01345B
S315080099A00E2CEFDD0123A8F1080208212846FFF74F
S315080099B0C1FBBDE8F08100BFFC680F0868660F08A8
S315080099C00C690F08DC620F088C660F082DE9F04F4A
S315080099D087B08B4615461C46DDF840A09DF94430F5
S315080099E001939DF84860149F8046A0B1002C1ADDAB
S315080099F0544518DCBAF1280F15DC032D05D8019B50
S31508009A00B3F1FF3F01DB072B16DD9A4B9A4AD021AB
S31508009A109A4880F089FC0029E8D0994B964ACE21CD
S31508009A20964880F081FC974B934ACF21934880F063
S31508009A307BFC544514DA013429462046FFF728FBF7
S31508009A404FEAC009224659464046FFF74BFAB0F19D
S31508009A50FF3FEED08145ECDB02904FF0010906E0AE
S31508009A600020387007B0BDE8F08F09F10109B9F197
S31508009A70030F0DDC002EF8D05FFA89FA514620460E
S31508009A80FFF706FB029BB3EBC00FEEDC5546ECE78F
S31508009A90A300113303FB03F307330BD4DB105A1C63
S31508009AA000213846ECF0C4F800230593994603953F
S31508009AB0A24614E00733F1E7AA68E310D05CE34353
S31508009AC003F00703184105AB3A4601210840FFF7A2
S31508009AD073FA0134EB68A342EEDC09F10109D945B2
S31508009AE018D24FEA091608EB091505AB3A460421C0
S31508009AF018F80600FFF760FA6C68514618F8060071
S31508009B00FFF7AAF9014605AB3A462046FFF754FA8D
S31508009B100024DFE7039D5446DDF81480029B984530
S31508009B202ED129465046FFF7B3FA4FEAC009B8EBDB
S31508009B30C00F2BDCA9EB0801042900DD042105ABC5
S31508009B403A460020FFF738FA059B5A4203F0070306
S31508009B5002F0070258BF5342C3F10803584203F004
S31508009B60070100F0070005AB3A4658BF41420020FE
S31508009B70FFF722FA059B13F007080DD1EC2619E02A
S31508009B80414B3D4AF2213D4880F0CEFB3F4B3A4AD5
S31508009B90F6213A4880F0C8FB3D4B374AFC21374846
S31508009BA080F0C2FB05AB3A4608213046FFF704FAB7
S31508009BB086F0FD06059B4B45F4DB139B2A4621469A
S31508009BC03846FFF7B9FB3946204688F022FA204680
S31508009BD0FFF71EFA011E21DB3A46C9101398FFF754
S31508009BE043FC21463846FFF7A5FC1399204688F022
S31508009BF010FA019BB3F1FF3F30D09DF80430072BD4
S31508009C0031D8019C224639461398FFF76DFD3A462E
S31508009C1021462846FFF734FE012023E70731DBE714
S31508009C20224639464846FFF75FFD08F10108B8F1B4
S31508009C30070FE2DC4FFA88F4224639464846FFF712
S31508009C4053FD3A4621462846FFF71AFE384688F05D
S31508009C5084FA8642E4DD06460194E1E76FF00046A1
S31508009C60DDF84C90E3E70B4B034A4FF48C7103483D
S31508009C7080F05AFB04670F08686A0F08DC620F0851
S31508009C806C630F089C660F0848670F0860670F0823
S31508009C907C670F0868660F0808B558B10346007850
S31508009CA0002914DB884214DD002A14DB904208DC04
S31508009CB000200DE00A4B0B4A40F2F9210A4880F0D1
S31508009CC033FB1846FFF710FA38B1012000E00020F0
S31508009CD008BD0020FCE70020FAE70020F8E700BFEF
S31508009CE0D8650F08D4680F08DC620F0810B504465B
S31508009CF038B1217861B10848EBF0A2FF50B10134C0
S31508009D00F7E7064B064A40F22931064880F00CFB75
S31508009D10012010BD0020FCE79C670F088C670F0820
S31508009D20B8680F08DC620F0808B5024638B1137820
S31508009D3063B1303BDBB2092B0AD80132F7E7054B92
S31508009D40054A4FF44D71054880F0EEFA012008BD2A
S31508009D500020FCE78C670F08A4680F08DC620F0870
S31508009D6008B5FFF72BF8B0F1FF3F0CD0B0F5004F60
S31508009D7002D20730C00808BD044B054A40F24231FA
S31508009D80044880F0D1FA4FF0FF30F4E7CC670F08AB
S31508009D9084680F08DC620F082DE9F04184B0C1B170
S31508009DA0064615460C460846EBF0FAFF80460120A3
S31508009DB08DF800004146FFF701F80746B0F1FF3F6E
S31508009DC00ED0CDF80480002811DC0020039001464F
S31508009DD01CE0294B294A40F27A31294880F0A4FA36
S31508009DE0284B264A40F27F31254880F09DFAC21D4D
S31508009DF0D20800212846EBF01BFFE6E7224B1F4A54
S31508009E0040F289311E4880F08FFA01342378ABB1CD
S31508009E10A3F13002D2B2092AF0D800EB800003EB96
S31508009E204003A3F1300001310329EED103AB2A46E2
S31508009E300A21FFF7C1F800200146E6E700290CDCF5
S31508009E40039BBB4211D1029504AB13E90F0086E8C8
S31508009E500F00304604B0BDE8F08101EB410103ABC9
S31508009E602A460131FFF7A8F8EAE7084B034A4FF4F8
S31508009E706571034880F058FAEC670F086C680F089C
S31508009E80DC620F08FC670F080C680F0824680F08C7
S31508009E902DE9F04385B0B9B1804617460E46084607
S31508009EA0EBF07EFF044602208DF800002146FEF7FF
S31508009EB085FF8146B0F1FF3F0DD00194002811DCE3
S31508009EC00024039425461CE0294B2A4A4FF467715F
S31508009ED0294880F029FA294B264A40F2A13126481A
S31508009EE080F022FAC21DD20800213846EBF0A0FE07
S31508009EF0E6E7234B1F4A40F2AB311F4880F014FABD
S31508009F0001363178B9B11F48EBF09AFE0028F0D037
S31508009F1004EB4404C4EB04141A4A831A1C4401359E
S31508009F20022DEDD103AB3A460B212046FFF744F844
S31508009F3000242546E4E7002D0CDC039B4B4510D195
S31508009F40029704AB13E90F0088E80F00404605B0F6
S31508009F50BDE8F08303AB3A4606212046FFF72CF806
S31508009F60EBE7094B034A40F2B631034880F0DCF9C7
S31508009F708C670F0850680F08DC620F08FC670F082B
S31508009F8040680F089C670F0824680F08014B036098
S31508009F90704700BF1C6F0F08014B0360704700BF76
S31508009FA0446F0F08014B0360704700BFB46F0F087A
S31508009FB0044A026030324260034A4260034A026041
S31508009FC0704700BF646F0F08446F0F081C6F0F08B7
S31508009FD0A0F10400ECE700BF08B5034A02211D20E2
S31508009FE0ABF012FD08BD00BFEC6B0F0808B5034ABD
S31508009FF002211D20ABF008FD08BD00BFFC6B0F0851
S3150800A00008B5044A02211D20ABF0FEFC024BFF22D4
S3150800A0101A7008BD0C6C0F08C885022008B50A48D6
S3150800A0200368DB690121984740B908482DF0A4F870
S3150800A0302BF02AFB03681B6F984708BD67F0A6FC40
S3150800A0400121E2F048FDF0E7D8FB012098B0002096
S3150800A05010B52CF065FB2CF09BFB0A4C204630F023
S3150800A060E9FF204630F0D0FF00224FF46171064820
S3150800A0709FF0FDFE00B910BD044A01212120ABF076
S3150800A080C3FCF8E7F0CD002088A20020286C0F0852
S3150800A09010B50446034B03600821B7F024FE20469A
S3150800A0A010BD00BFB46F0F0810B50446064B036019
S3150800A0B030334360054B4360054B03601021B7F00E
S3150800A0C012FE204610BD00BF646F0F08446F0F08CC
S3150800A0D01C6F0F08A0F10400E6E700BF10B50446A0
S3150800A0E0034B03600821B7F0FEFD204610BD00BFF4
S3150800A0F0446F0F0810B50446034B03600421B7F0FC
S3150800A100F2FD204610BD00BF1C6F0F08012800D0C5
S3150800A11070474FF6FF739942FAD170B584B01F4D58
S3150800A1200024C5F8C84085F8CC4085F8CD4085F8A8
S3150800A130CE4085F8CF402022214605F1D000EBF02D
S3150800A14077FD85F8F04085F8F14085F8F240144E21
S3150800A15003940294134B019302230093124B134A60
S3150800A160012130460FF090FD114D2A46114930461F
S3150800A170EAF090F91048046044608460C4600F4BAC
S3150800A18003600F4B43600F4B0360303343602A462E
S3150800A1900D49EAF07FF904B070BD00BF848701203D
S3150800A1A068870120CDA10008ED9F0008D99F000807
S3150800A1B0307B0220C5120A08548701201C6F0F083D
S3150800A1C0446F0F08646F0F08B19F0008F0B587B099
S3150800A1D00446027D364B1A70837D83B9344B197851
S3150800A1E0FE2941D011D80B2958D80B2956D8DFE8B3
S3150800A1F001F01629165555555555555555292D4AC3
S3150800A20003212120ABF000FCE8E7FF2946D1ACF09A
S3150800A2106EFA03685B6A22462749984710E0ACF055
S3150800A22066FA054603685E690523ADF8043001A998
S3150800A230684688F02FF923461F4A00992846B047F2
S3150800A24007B0F0BDACF053FA054603685E690A2309
S3150800A250ADF80C3003A902A888F01CF92346164A63
S3150800A26002992846B047EBE7ACF041FA03685B6A07
S3150800A270114E224631469847ACF039FA054603682E
S3150800A2805F690123ADF8143005A904A888F002F91E
S3150800A2902346324604992846B847D1E7044BFF229D
S3150800A2A01A70064A02211D20ABF0AEFBC8E700BFB4
S3150800A2B0C8850220586C0F0801A000088C6C0F088E
S3150800A2C010B50C46124A10210A2048F0F9FD114B28
S3150800A2D0186048B1104A0F49204648F0D5F90F4B87
S3150800A2E0186058B1002010BD0D4A01212120ABF09D
S3150800A2F08BFB40F2017088F0E5F9EBE7094A01218A
S3150800A3002120ABF081FB40F2027088F0DBF9E9E727
S3150800A310E86F0F08209A0120C46F0F08249A0120BD
S3150800A320A46C0F08C86C0F0830B583B0404BDB7DB2
S3150800A3306BB9404B1B78FF2B54D00B2B0CD8DFE89E
S3150800A34003F00E141B0B0B0B0B0B0B0B0B23FA2238
S3150800A3501146394888F0D4F8012003B030BD3222BE
S3150800A3601146354888F0CCF8F6E74FF47A7211466C
S3150800A370314888F0C5F8EFE74FF42F724FF496711D
S3150800A3802D4888F0BDF8E7E72C4B1B7823B3322419
S3150800A3902BB340F2B6352A4B19680B681B69684619
S3150800A3A0984700980199274A1368526813F57A73F3
S3150800A3B042F10002984271EB0202CDD3214B18609C
S3150800A3C059601E4A137883F0010313702A46214602
S3150800A3D0194888F095F8BFE74FF42F74D8E74FF47B
S3150800A3E09675D8E7184B1B788BB1184B1B7873B149
S3150800A3F0174B1B7823B101210F4800F01FFBABE771
S3150800A400322240F2B6310C4888F07AF8A4E7114BAC
S3150800A4101B782BB164221146074888F071F89BE730
S3150800A42040F2B6323221044888F06AF894E700BF51
S3150800A43068870120C8850220081200208B70022038
S3150800A440F0820220001200208D70022090700220F7
S3150800A4508F7002208E70022010B5084B1870084CB9
S3150800A4602046AEF06EF8074B18702046AEF0C9F8D5
S3150800A470054B1870FFF758FF10BD00BF8D700220FE
S3150800A480F0CD0020907002208F70022010B515487C
S3150800A490ACF0DBFD58B9144B1B78FBB1134800F040
S3150800A4A0E1FA134B186808B100F0DCFA10BD114C3C
S3150800A4B02046AEF046F8104B18702046AEF0A1F8CC
S3150800A4C00E4B18700E482FF087F9003818BF012078
S3150800A4D00C4B18700348ACF0C2FDDCE7FFF724FF0D
S3150800A4E0DCE700BF98B000208C700220081200201C
S3150800A4F064870120F0CD0020907002208F70022022
S3150800A50050F901208E70022008B5094B186848F0EA
S3150800A5108FFAB0F1FF3F00D008BD064A012121207D
S3150800A520ABF072FA40F2067088F0CCF8F4E700BF98
S3150800A5302C9A0120E46C0F0808B58102094BA3FB8D
S3150800A54001318909084B186848F048FA00B908BD6E
S3150800A550064A01212120ABF057FA40F2057088F02F
S3150800A560B1F8F4E7D34D62102C9A0120FC6C0F0861
S3150800A57010B540F6B8330B4A02212120ABF044FA55
S3150800A58040F6B830FFF7D8FF074B01221A70074C80
S3150800A5900021204600F052FA4FF4FA71204687F05F
S3150800A5A0B5FF10BD186D0F088C7002200812002028
S3150800A5B008B5FFF7A9FF064B1B7803B908BD044B7E
S3150800A5C000221A70034A02212120ABF01DFAF5E792
S3150800A5D08C700220586D0F0838B50379012B05D009
S3150800A5E0174B1B783BB1FFF7E3FF38BD40F6B83091
S3150800A5F0FFF7A2FFF9E7FFF787FF124803689B6892
S3150800A6009847114B1B78ABB9104D2846ACF016FD90
S3150800A61000224FF461710E489FF029FC0446284633
S3150800A620ACF01DFD002CE0D00A4A01212120ABF038
S3150800A630EBF9DAE7084A02212120ABF0E5F9D4E77D
S3150800A6408C700220805F02208D70022098B0002056
S3150800A65088A20020286C0F087C6D0F0808B50A210F
S3150800A660074B186848F0BAF900B908BD054A012130
S3150800A6702120ABF0C9F940F2057088F023F8F4E719
S3150800A680289A0120BC6D0F0800487047848701206E
S3150800A69070B58AB005460DF1040C184C0FCCACE821
S3150800A6A00F000FCCACE80F002368CCF800302E461C
S3150800A6B0E5B9134D2846ADF044FF04462846ADF0EB
S3150800A6C0A0FF04B900208DF805000E489FF022FB74
S3150800A6D08DF826000C4B93F83A398DF804304EB9AC
S3150800A6E001A90A4888F0EEF80AB070BD0848ACF02F
S3150800A6F0A5FCDEE70648ACF0B2FCF1E700700F08EF
S3150800A700F0CD002088A200206896002084870120CA
S3150800A71098B0002008B501460A4B186858B10023BE
S3150800A720182248F027FC00B908BD074A0121212054
S3150800A730ABF06AF9F8E7054A01212120ABF064F984
S3150800A740F2E700BF209A0120D46D0F08046E0F08A7
S3150800A75000B585B00123ADF800300190034B039393
S3150800A7606846FFF7D7FF05B05DF804FBA5A7000804
S3150800A77008B5CB6813B10846984708BD024A0221B6
S3150800A7802120ABF041F9F8E7286E0F0808B500223A
S3150800A790024903482CF028FD08BD00BF75240908A6
S3150800A7A098B0002008B50388012B04D1044B1B7808
S3150800A7B013B9FFF7DDFE08BDFFF7E8FFFBE700BFAB
S3150800A7C08C70022008B50022024903482CF00CFDC3
S3150800A7D008BD00BF8124090898B0002010B5A4B0B0
S3150800A7E0044603AB01938123029367F0CFF801A9CE
S3150800A7F067F0E0FD90B934B901AB93E803001BF0AC
S3150800A800FBFB24B010BD084C029A0199204688F03B
S3150800A81070F80121204688F0B6F8EDE7034A0121D1
S3150800A8202120ABF0F1F8ECE784870120586E0F0879
S3150800A83008B50020FFF7D2FF0120FFF729FF0248DD
S3150800A84088F090F808BD00BF8487012010B504463B
S3150800A850002302461946274848F060F8264B186038
S3150800A860002832D0002322460121244848F056F811
S3150800A870234B1860002832D0224B234A022121207C
S3150800A880ABF0C2F80123214A02212120ABF0BCF823
S3150800A8902AF0FAFE03685B6F98470120FFF79EFFD0
S3150800A8A000F0B6F800211A48FBF7BAFE002219494B
S3150800A8B01948ACF085FB1948ADF092FE184B187094
S3150800A8C018491948A3F04CFD10BD184A012121204A
S3150800A8D0ABF09AF840F2047087F0F4FEC2E7144A27
S3150800A8E001212120ABF090F840F2047087F0EAFECF
S3150800A8F0C2E700BF51A700082C9A0120BF24090807
S3150800A900289A012064B90F08A86E0F08CC6E0F08A4
S3150800A9100812002075A9000898B00020F0CD002084
S3150800A9208D70022058870120209C0020706E0F0829
S3150800A9308C6E0F08014B1878704700BF8D70022087
S3150800A94010B582B00446FFF7F5FF08B902B010BD8E
S3150800A950002323730DF10701054887F0AFFF9DF823
S3150800A9600730022BF2D10021014887F0E4FFEDE71A
S3150800A9708487012030B585B00446038848F2020270
S3150800A980934207D948F20402934206D1027A1D4B34
S3150800A9901A7002E0B3F5004F01D805B030BDFFF7D5
S3150800A9A073FE05460DF1070187F088FF9DF807300D
S3150800A9B0012B1DD094F90830012B03D094F90930E6
S3150800A9C0012BEAD1104A02212120ABF01DF8ABF089
S3150800A9D08EFE044603685D690323039303A902A850
S3150800A9E087F080FD0023094A02992046A847D4E744
S3150800A9F00020FFF74DFE9DF80710284687F09BFFBD
S3150800AA00D8E700BF8D700220EC6E0F088D24090868
S3150800AA1008B5024803681B6A984708BDD8FB012099
S3150800AA2010B5044604480368DB6A217C9847637CB2
S3150800AA3083F00103637410BDD8FB012038B50446C2
S3150800AA400D460023C360836000220023C0E900236B
S3150800AA50034803685B6A227C9847657438BD00BF63
S3150800AA60D8FB012083680BB370B582B00446C3686F
S3150800AA7093B10F4B19680B681B6968469847009E87
S3150800AA80019D637C53B1A168236862685B1842F133
S3150800AA900002B342AA4103D302B070BDE168F3E7EE
S3150800AAA02046FFF7BDFF26606560F5E7704700BFE3
S3150800AAB0F0820220024A0260024A0260704700BF22
S3150800AAC0B4830F0870720F08024A0260024A0260D5
S3150800AAD0704700BFA0B50F080C720F0808B50248EA
S3150800AAE0ADF027FD08BD00BFF0CD002008B502482F
S3150800AAF0ADF023FD08BD00BFF0CD0020012800D031
S3150800AB0070474FF6FF739942FAD110B50B480C4BB4
S3150800AB1003600C4B0360002343608360C3600374C7
S3150800AB20436103764376084C22460849E9F0B2FCAD
S3150800AB30224607490748E9F0ADFC10BD3C9A0120BA
S3150800AB4088710F0818851008307B0220199E0308A3
S3150800AB50B5AA00082081022008B5024830F012F88C
S3150800AB6008BD00BFF0CD002008B5064B03602433AE
S3150800AB704360836823B9044B4360044B036008BDF4
S3150800AB80EAF0C4FD2C720F08EC710F08CC710F089F
S3150800AB90A0F10400E8E700BF10B50446054B0360C2
S3150800ABA0443343609EF0BAFB2046FFF7DDFF20469C
S3150800ABB010BD00BF48F80F08A0F10400ECE700BF7D
S3150800ABC010B50446044B0360044B03600821B7F034
S3150800ABD08AF8204610BD00BFB4830F0870720F08AC
S3150800ABE008B50A482CF054F9094830F00DFA00B1B6
S3150800ABF008BD01210748FFF7AFFF0028F8D106482E
S3150800AC002CF046F90248ADF092FCF1E724700F08E3
S3150800AC10F0CD002050F9012044700F0810B501202E
S3150800AC2087F07FFC0F4803681B6898470E4A002187
S3150800AC300E4847F029FD0E4C20600E482CF028F9E6
S3150800AC40236863B1074803685B69984728F09EFE46
S3150800AC5009482CF01DF9AC2087F034FD10BDEAF048
S3150800AC6055FD00BFD8FB0120A0720F0819AF0008D8
S3150800AC70389A012060700F0874700F0810B50446E2
S3150800AC80044B0360044B03600421B7F02CF82046FC
S3150800AC9010BD00BFA0B50F080C720F0838B50446E2
S3150800ACA0C3689BB1636BB3B1A36BEBB1E36B23B31F
S3150800ACB0244B2362244DE1682846A4F013FF236A37
S3150800ACC02B612846A4F060F8D0B138BD1F4B204A46
S3150800ACD05A60C360E6E7E1681E4887F058FC00281A
S3150800ACE0F3D11C4B6363DFE7E1681B4887F08CFCF4
S3150800ACF00028EAD1184BA363D8E7184BE363D7E7D4
S3150800AD00114BE361E368D3B1154A5360002000286C
S3150800AD10DBD1134B236103F04BFA6062114BA3623C
S3150800AD20114A02212120AAF06FFEE1680F4809F0B6
S3150800AD30E9FB0028C9D10D4B63610020C5E72F2028
S3150800AD40E5E700BFD4810220A8DE0120F4810220B5
S3150800AD504CF00120E081022014E10120D07200208D
S3150800AD60A0DE0120D88102208C700F0864DE012045
S3150800AD7030B585B00446504D28462CF089F8214652
S3150800AD804E482CF085F828462CF082F84C482CF0D2
S3150800AD907FF84C4887F0D2FB08B105B030BD214694
S3150800ADA049482EF011FD66F0F1FD0446E1F07BFE00
S3150800ADB00028F2D12546002C4CD0201D2AF0C6FBCF
S3150800ADC00CB104F1080528462AF048FB2046E1F0B4
S3150800ADD07FFE002840D03D4B3D4A02211F20AAF0A5
S3150800ADE013FEFFF7FDFE0028D7D13A48ACF026F946
S3150800ADF0394BD3E8AF3F13F0010F2FD0374BD3E8C9
S3150800AE00AF3F13F0010F37D0354C364BE363364D61
S3150800AE1028462FF00FF865632046FFF73FFF00230B
S3150800AE20019302930393314B0193314B02933148BB
S3150800AE30ADF046FB039001ABE3622F4B236021463E
S3150800AE402E481BF0D5FE04462248ACF008F934B368
S3150800AE502046A2E72046B1E7294BBDE71E48B8F0D1
S3150800AE6097F80028CAD0274A27492848E9F012FB4C
S3150800AE701948B8F092F8C1E71848B8F089F80028D8
S3150800AE80C2D0184C2149204619F06EFE1D4A2049A9
S3150800AE902046E9F0FFFA1148B8F07FF8B4E71D48F4
S3150800AEA02BF0F6FF0B482CF0C1F900287FF475AF9C
S3150800AEB000F086F8002070E7D0700F0804710F08BC
S3150800AEC010710F0890B0002050F90120BC700F08CF
S3150800AED020710F0898B00020349A0120309A01207A
S3150800AEE0E0800220201200203C9A0120DDAA0008FA
S3150800AEF0EDAA0008F0CD00205487012068760020CE
S3150800AF00C4700F08307B0220C9AA0008DC80022022
S3150800AF1099AB000834710F0810B51948FFF728FFD8
S3150800AF2028BB184C184BD3F884142046ABF0BEFB4C
S3150800AF3020462AF0FBFA1548ACF080F866F026FDA4
S3150800AF4000B10C3020F084FE1048ACF088F81048A8
S3150800AF502BF09EFF0F4866F01BFA58B90E4B18687F
S3150800AF6047F0FEFB48B90C4B00221A6010BD87F06B
S3150800AF70A9FBD6E787F0A6FBF0E7EAF0C7FB00BF18
S3150800AF805C710F082081022068A6002098B0002076
S3150800AF906C710F08805F0220389A012008B50248B4
S3150800AFA027F0ECFD08BD00BFB8EC012008B501216B
S3150800AFB0024B186847F0FCFB08BD00BF589A0120F1
S3150800AFC008B50C4827F022FD60B901F09BFE01F098
S3150800AFD0EDFE094A0021094847F056FB084B186060
S3150800AFE030B108BD074B084A752108487FF09CF91F
S3150800AFF0EAF08CFBB8EC012044730F089DAF0008FB
S3150800B000589A0120C4720F08D0720F08EC720F0804
S3150800B010024A0260024A0260704700BF00641008D4
S3150800B020C4740F08044A026020324260034A426030
S3150800B030034A0260704700BFF4750F08E0740F08F2
S3150800B04098740F08A0F10400ECE700BF024A0260FA
S3150800B050024A0260704700BFC0E70F08AC750F08C8
S3150800B060024A0260024A0260704700BF44E70F08BE
S3150800B07000750F0810B50446064B0360203343607D
S3150800B080054B4360054B03601021B6F02CFE2046A5
S3150800B09010BD00BFF4750F08E0740F0898740F0808
S3150800B0A0A0F10400E6E700BF10B50446054B0360AF
S3150800B0B0406B08B137F0C0F900236363024B236085
S3150800B0C0204610BDF4DC0F0870740F0810B504464E
S3150800B0D0154B03606433436000F50E7038F00EF8C4
S3150800B0E004F5D07204F5067300E0183B9A42FCD1C9
S3150800B0F00E4B63642033A3640D4BA3640D4B63644A
S3150800B10004F11C00636A13B100226262984704F1D5
S3150800B1100800236913B1002222619847064B636031
S3150800B120064B2360204610BDA8E30F08F4750F08E8
S3150800B130E0740F0898740F08AC740F0850750F0860
S3150800B140A0F10400C2E700BF10B50446064A012173
S3150800B1500C20AAF059FC0023A360E06810B103682C
S3150800B1609B68984710BD00BF68730F08A0F10400DC
S3150800B170EAE700BF30B583B0C068D8B10D461446BB
S3150800B1801A68019200221A6001AA214612F022FECC
S3150800B190019808B137F050F9002301930C4B1B684E
S3150800B1A00093A3886BB12B8943F040032B810020C1
S3150800B1B003B030BD074A01210C20AAF025FC002067
S3150800B1C0F6E7E388002BEED12378402BEBD1EEE7A8
S3150800B1D034760F087C730F08A0F10400CAE700BF95
S3150800B1E0F0B587B006460C46224A03211520AAF078
S3150800B1F00BFCB568002D2DD00023ADF810301E4B82
S3150800B2001B68039323893BB31C4A1268039253B302
S3150800B2100123ADF81030277B606837F0F1F86368D2
S3150800B220059304AB009305AB3A46A168284628F077
S3150800B230EFFF0446059808B137F0FEF8002305939A
S3150800B2402CB1B06818B1AAF05EFD0023B3602046A1
S3150800B25007B0F0BD0320FBE76289022AD4D1227B1E
S3150800B260142AD1D1D7E76389002BD1D1237B402B70
S3150800B270CED1D0E7B0730F0830760F0834760F08B2
S3150800B28008B50D4BD3E8AF3F13F0010F01D00B48BB
S3150800B29008BD0948B7F07CFE0028F8D00748084BD7
S3150800B2A00360084B0360084A0849E9F0F3F80248C6
S3150800B2B0B7F073FEEBE700BF14A3012018A3012023
S3150800B2C0C4740F0800641008307B022011B000080F
S3150800B2D010B50446044B0360044B03600421B6F022
S3150800B2E002FD204610BD00BF00641008C4740F0894
S3150800B2F086B02F4B03602F4B43602F4B036064339C
S3150800B300436000F10803C360836000230361406162
S3150800B3102A4A826103AA04920392059300F11C0249
S3150800B3200262C26143628062254AC262CDF804D0D5
S3150800B330CDF800D0029303634363836380F83C30FF
S3150800B3400364204A4264204A8264204A42642032C6
S3150800B350826480F87430C0F88030C0F88430C0F851
S3150800B3608830C0F88C30C0F89031C0F8943180F835
S3150800B3709831C0F89C3100F5D072042303E000210F
S3150800B38002F8181B013B002BF9DA0023C0F8183223
S3150800B3900522C0F81C2280F82032C0F83C32C0F8DA
S3150800B3A040320B4AC0F8382280F8443206B070475B
S3150800B3B050750F08AC740F08A8E30F08A5F101082B
S3150800B3C04DE4010898740F08E0740F08F4750F0827
S3150800B3D0B8B1100838B504460B4B03600025456024
S3150800B3E005720A4B40F8103B30F088FBC4F8D05081
S3150800B3F0C4F8D450064904F1D80087F04BF8C4F8CD
S3150800B400DC50204638BD00BF70740F08F4DC0F0806
S3150800B4102C760F08012800D0704738B54FF6FF7311
S3150800B420994200D038BD0F4D2846FFF761FF0E4CF4
S3150800B43022460E492846E9F02DF822460C490D48C1
S3150800B440E9F028F822460C490C48E9F023F80C4D97
S3150800B4502846FFF7BFFF22460A492846E9F01AF8A8
S3150800B460E0E700BF50160020307B0220CDB0000870
S3150800B4704DB000084881022061B0000828810220EA
S3150800B48070150020A9B00008F0B583B0164E3046F6
S3150800B49012F062FF154901F54053D3F88434144A73
S3150800B4A05360144D144F00972B46304613F00EF98F
S3150800B4B0124B2B612EF048FF0446024631462846B9
S3150800B4C014F0AEF8394620462EF042FE18B90A4B5B
S3150800B4D05C6003B0F0BD0A482BF0DAFC094B0A4A57
S3150800B4E06D210A487EF020FF50160020687600205D
