:020000040800F2
:1060000000120020B94C0408BDC30B087F0B09081F
:10601000F9020C08BDC30B08BDC30B08BDC30B08B8
:10602000BDC30B08BDC30B08BDC30B0861640008EA
:10603000BDC30B08B8B71008F1630008DF370C08C0
:1060400011520408BDC30B08BDC30B08BDC30B0828
:10605000BDC30B08BDC30B08BDC30B08BDC30B08F4
:10606000BDC30B08BDC30B08BDC30B0831B9000885
:10607000BDC30B08BDC30B08BDC30B08BDC30B08D4
:10608000BDC30B08BDC30B08BDC30B08BDC30B08C4
:10609000BDC30B08B55A0408BDC30B08BDC30B082C
:1060A000BDC30B08995C0408715C0408BDC30B08F0
:1060B000BDC30B08E95D080879680808193E0F0898
:1060C000153E0F081D600808253E0F081D3E0F08ED
:1060D0004D680808213E0F08B968080825690808B6
:1060E000BDC30B08BDC30B08BDC30B08BDC30B0864
:1060F00091FE0B08BDC30B08BDC30B08BDC30B0845
:10610000BDC30B08BDC30B08BDC30B08BDC30B0843
:10611000BDC30B08BDC30B08BDC30B08BDC30B0833
:10612000BDC30B08BDC30B08BDC30B08BDC30B0823
:10613000BDC30B08BDC30B08BDC30B08BDC30B0813
:10614000BDC30B0899900408BDC30B08A7040C0835
:10615000B1430808BDC30B08BB3D0F08C13D0F0884
:10616000BDC30B08BDC30B08BDC30B08BDC30B08E3
:10617000194A5AB3194BDB6913F0040F29D110B433
:106180000AE003EA00048C4210D0013AB2B1134B8A
:10619000DB6913F0040F14D110F0010FF1D1104C92
:1061A0001C40002CEDD06FF001000CE00C4A1A40AE
:1061B0000AB9002007E06FF0010004E06FF0020070
:1061C00001E04FF0FF305DF8044B70476FF00200C4
:1061D00070474FF0FF3070478096980000000350E2
:1061E000020001000D4BDB6913F4803F12D170B542
:1061F0000A4B03F580560124F46003F500552C6426
:106200004FF480721A6100212046FFF7B1FF346419
:10621000EC6070BD6FF00100704700BF00000350DC
:1062200010B5124B4FF480329A6603F51C33DC69CB
:10623000144041F67132DA6303F580520121D160D6
:10624000586102221A6100212120FFF791FF40B11D
:10625000074B0122DA601CB1A3F500530022DA6378
:1062600010BD00212120FFF783FFF1E700900050CF
:106270000020035038B51A4B5861DB6913F0040F46
:106280002AD10C4654F8041B154B9961151F06E0E2
:10629000214651F8042B124B9A61043D0C465DB126
:1062A00008210846FFF764FF03460028F0D00C4A97
:1062B00004211161184638BD094B04221A610021DE
:1062C0002120FFF755FF03460028F3D100212120AC
:1062D000FFF74EFF0346EDE74FF0FF33EAE700BF5D
:1062E000000003502DE9F0410F46164605461A4BB3
:1062F0004FF480329A6603F51C33DA6902F4803871
:1063000041F67132DA6303F580530122DA6000232B
:1063100002E025442744361B8EB105F5005424F4D1
:10632000FF5424F01F04641BB44228BF34462246A5
:1063300039462846FFF79EFF03460028E9D0074A62
:106340000121D160B8F1000F03D0A2F50052002165
:10635000D1631846BDE8F081009000500020035042
:10636000000000000000000000000000000000002D
:10637000013800D0FCE7704700000000000000007A
:106380000B4A1168086806C881F30B88022181F363
:106390001488203080F30988BFF36F8F4FF000001E
:1063A00080F31188104700BFAFF30080AFF3008087
:1063B000285402200000000000000000000000003F
:1063C00007480068006880F3088862B661B6BFF3CA
:1063D0004F8FBFF36F8F02DF00BF00BFAFF30080AE
:1063E00008ED00E0000000000000000000000000D8
:1063F000EFF309801EF0100F08BF20ED108AEFF3B5
:106400000B82734620E9FC0F114A116808604FF0B7
:10641000300080F31188BFF34F8FBFF36F8F4DF0C3
:10642000EDFF4FF0000080F31188094A11680868F9
:10643000B0E8FC0F13F0100F08BFB0EC108A82F325
:106440000B8880F309881847AFF30080AFF3008012
:10645000285402200000000000000000000000009E
:106460001EF0040F0CBFEFF30880EFF3098004491E
:10647000084700BFAFF30080AFF30080AFF30080A8
:106480008553050800000000F0B591B006460C46A3
:1064900010468B680B2B00F2A680DFE803F006A401
:1064A00026A436A44862A47484940023049305931C
:1064B00004A983F0F4FD054688B100202F4605B9F4
:1064C00058B9002385222146304683F05BFC3B46C9
:1064D000514A02211D20ADF001FD11B0F0BD04AA0A
:1064E0002146304616F054FFE8E700238DF81030BF
:1064F00004A983F0DBFD054608B10020DEE704AA0D
:106500002146304616F0B4FED8E7002304930593E5
:106510008DF8183004A983F0D0FD054608B100209D
:10652000CCE704AA2146304617F032F8C6E700232C
:10653000049305938DF8183009930A939FED347BEB
:106540008DED0C7BADF8383004A983F0BDFD054618
:1065500008B10020B2E704AA2146304616F09AFCA2
:10656000ACE70023049305938DF8183004A983F059
:10657000B2FD054608B10020A0E704AA2146304636
:1065800016F0B2FB9AE700230493059304A983F065
:10659000A9FD054608B1002090E704AA214630462F
:1065A00016F022FB8AE700238DF8103004A983F04F
:1065B000A0FD054608B1002080E704AA2146304628
:1065C00016F096FA7AE700230493059304A983F062
:1065D00097FD054608B1002070E704AA2146304621
:1065E00016F082F96AE700238122304683F0CAFB65
:1065F000A3686268110C92B2029201919AB2009261
:106600001B0C064A01211D20ADF068FC65E700BFA8
:106610000000000000000000AC5C0F08785C0F0870
:1066200008B59FED077B80ED007B00228260C26091
:1066300001744274114604F001FA08BDAFF3008002
:1066400000000000000000000023037043702023BE
:1066500083700123C37000F1080300F1280203E0F6
:106660009FED097BA3EC027B9342F9D100F1280353
:10667000403004E04FF0FF321A605A600833834222
:10668000F8D17047AFF30080000000000000000068
:106690009FED037B80ED007B00220272704700BFFC
:1066A0000000000000000000012800D0704708B57D
:1066B0004FF6FF73994200D008BD0F480F4B03609F
:1066C0000F4B03600023436083600322C2600361B9
:1066D00043619FED077B80ED067B80F8203080EDE5
:1066E0000A7B084A0849EDF0F6FBE5E7AFF30080C6
:1066F0000000000000000000003D00202C980F0862
:1067000090980F08307B022035FF00080000000041
:10671000016002719DED007B80ED027B002202741E
:106720009FED0D7B80ED067B80F8202080ED0A7BBD
:1067300080ED0C7B8263C263012180F8401080F8F9
:10674000482080F8492080ED147B8265C26502668E
:1067500080F86420704700BF0000000000000000C7
:1067600000220260012101729FED077B80ED047B16
:106770000276C2610284426280ED0A7B80F830209A
:10678000704700BFAFF30080000000000000000071
:1067900000F130030022002A03DA00F14003002157
:1067A00014E000215970D97059609FED337B83ED5F
:1067B000027B013A1033EEE700225A70DA705A6019
:1067C0009FED2D7B83ED027B013910330029F3DA35
:1067D00000F150030022002A03DA00F190030021A7
:1067E00014E000219970997199609FED237B83EDEE
:1067F000047B013A1833EEE700229A709A719A608E
:106800009FED1D7B83ED047B013918330029F3DAFA
:1068100000F1A8030022002A03DA00F1D8030021C6
:1068200014E000219970997199609FED137B83EDBD
:10683000047B013A1833EEE700229A709A719A604D
:106840009FED0D7B83ED047B013918330029F3DACA
:1068500000F1F8030022002A00DA70470021997045
:10686000997199609FED047B83ED047B013A1833A5
:10687000F1E700BFAFF3008000000000000000005F
:1068800082B000228DF80120BDF8001001854185FD
:10689000C2629FED097B80ED0C7B019201218DF896
:1068A000061001998163C163026480ED127B02B01E
:1068B000704700BFAFF30080000000000000000040
:1068C0002DE9F04104460E4617463F4B03603F4B0F
:1068D00043603F4B03602C33436000F10808002500
:1068E0008560C560056145618561C56180F820509E
:1068F000056345639FED327B80ED0E7B80F8405051
:10690000344B00F1480C0FCB8CE80F00012384F8C6
:10691000583041F2A453A4F85A30E56584ED187B51
:10692000E56625672C4BA36684F8745004F17C035C
:10693000C4F88030E367C4F8845004F190001FF07D
:10694000F1FD84F8F85084F8F950244904F1FA0074
:106950008FF089FE84F8FC5084F8FD5084F8FE50D6
:1069600084F8FF5084F8005104F58273C4F80831AC
:10697000C4F80431C4F80C51314640468CF096FD01
:1069800030468CF032FDA0B99FB10A9B8BB12763D2
:1069900006AB03CBA063E1631B7884F840300A9B0D
:1069A000C4F88830012384F8F830231DC4F89C30E3
:1069B00002E0002384F8F8302046BDE8F08100BFF3
:1069C0000000000000000000C4A40F08E8A40F08A5
:1069D00020A50F0848EC0120F8AB10086C700F08D8
:1069E0002DE9F0472DED028BCCB005460E461F4633
:1069F00000200021CDE92A01CDE92C0100248DF8E9
:106A0000B8402F94CDE930019D4B32939D4B32938A
:106A10004FF6FF73ADF810318DF812418DF8134128
:106A2000289429949046002A62D02C4605F53472A9
:106A3000944210D094F8813073B123686168013BAF
:106A400041F1FF316FF0010098426FF010038B416C
:106A500002D39034ECE70024002C47D0BDF85C3121
:106A6000ADF810318DF8B8609FED838B864B26937F
:106A7000864B269300222792814B1493814B1493CB
:106A80000B920C920D924FF4C8710BA88EF0DFF8A8
:106A90000B9B002B4DD04FF4C8710CA88EF0D7F88B
:106AA0000C9B002B6AD04FF4C8710DA88EF0CFF864
:106AB0000D9B002B64D00B9A0E924FF4C8710F916E
:106AC000002A5FD00C9A10924FF4C8711191002ADD
:106AD0005AD012934FF4C87313930EAA3146284626
:106AE000A5F06AFE002851D0044623E00B243BE0C9
:106AF00031462846A5F0F1FD8146C0B105F5347454
:106B000020468AF0F6FBB9F88230ADF810318DF8E6
:106B1000B86099ED028B0DF1200A494650469AF073
:106B20001DFE28AB9AE8030083E803009EE7AC242F
:106B30001AE00B240D9818B12FF05CFB00230D9385
:106B40000C9818B12FF056FB00230C930B9818B13A
:106B50002FF050FB00230B934A4B1493484B149394
:106B60004A4B2693484B2693464B3293444B3293E1
:106B700020464CB0BDEC028BBDE8F0870B24D9E772
:106B80000B24D7E7EEF0E3FAEEF0E1FA10AA314673
:106B90002846A5F0F2FD08B10446CBE712AA31461B
:106BA0002846A5F0C6FD08B10446C3E70EA946A8CD
:106BB00098F07BF910A948A898F077F912A94AA88B
:106BC00098F073F932AB079314AB06932CAB059393
:106BD00030AB04932AAB039326AB02938DED008B6D
:106BE0004AAA48A946A825F073F908B10446A1E7C6
:106BF0000D9818B12FF0FEFA00230D930C9818B1E0
:106C00002FF0F8FA00230C930B9818B12FF0F2FA3A
:106C100000230B93E7B13B685B693846984714A99A
:106C20008AF028FB08B9C52496E72F979DF85831BC
:106C30008DF812319DF86031B3FA83F35B098DF85A
:106C400013312AA92046A6F067F868B3044683E703
:106C5000D5F8640330B303689B689847C0B1D5F892
:106C6000640303685B6914AA314698470028E1D0A1
:106C7000044671E7AFF30080000000000000000050
:106C8000FC810F08787C100858001008502A100862
:106C9000D5F864030368DB68314698470028C9D1FA
:106CA000102459E7032457E728A92046A5F0ABFC98
:106CB000B8F1000F23D094F881301A4A0221112034
:106CC000ADF00CF922696369206861680290019156
:106CD0000092154A02211120ADF000F9279905F51F
:106CE0005D7028F00BFE0346A8B9B8F1000F04D080
:106CF00095F88233013385F8823300242CE794F829
:106D000081302168626801910092084A02211120B5
:106D1000ADF0E4F8E2E7064A01211120ADF0DEF81B
:106D2000E3E700BF2C2910084C291008902910080F
:106D3000C8291008000000002DE9F0438BB005467B
:106D40000C460DF11F030193152300934FF480723D
:106D500000230846ABF0A8F910B10BB0BDE8F083F2
:106D600095F892300093012200232046ABF01EF9E3
:106D70000028F2D195F89330009302220023204698
:106D8000ABF014F90028E8D10DF10A0301931623A2
:106D90000093032200232046ABF086F90028DCD1C3
:106DA00005F1980605F594774FF000092EE04FF0B5
:106DB00000099FED397B8DED007B042200232046E6
:106DC000ABF0C6F80028C8D1CDF80090052200230A
:106DD0002046ABF0EBF80028BFD103AB089310239B
:106DE00009930AAB13E903008DE803000622002390
:106DF0002046ABF03EFA0028AFD19DF90B1020469B
:106E0000ABF08BF90028A8D13036C146BE422AD05B
:106E1000002303930493059306930DF10B03019351
:106E2000152300934FF4807200232046ABF03CF909
:106E3000002892D109F101085FFA88F895F893309B
:106E40004B45B4D996ED007BB6F808900DF10C0CCB
:106E5000D6F80A00D6F80E10D6F81220D6F816305A
:106E6000ACE80F00A7E79DF90A102046ABF055F9F2
:106E700000287FF472AFB5F88A3000930722002310
:106E80002046ABF093F800287FF467AF9DF91F1000
:106E90002046ABF042F960E700000000000000006F
:106EA0004FF0FF310160002242609FED077B80EDD3
:106EB000047B8261C26102624262826280F82C10AD
:106EC000C18580F8302070470000000000000000FD
:106ED00000B583B09DF8101049B109219FED067BE4
:106EE0008DED007BAAF07FFF03B05DF804FB082165
:106EF000F4E700BFAFF300800000000000000000D6
:106F000000B583B09FED047B8DED007B1421AAF0CA
:106F10006AFF03B05DF804FB000000000000000001
:106F200010B58CB00F9C14B900200CB010BD8DF8BA
:106F300018009FED0B7B8DED087B00200A900E98CA
:106F400005900493039202910CAB13E903008DE8C2
:106F5000030006AB0FCBABF0BAFAE6E7AFF3008065
:106F6000000000000000000010B58AB000238DF87A
:106F700010309FED137B8DED067B089304AAACF0D7
:106F80004CFA10B92F200AB010BD2BF013FE0E4999
:106F9000ACF0E3F932F044FC01460C4C2046ABF077
:106FA00098FE63680BB10A4A5A600AAB13E90F00F6
:106FB0008DE80F0004AB0CCB0448ABF054FEE2E7C5
:106FC00000000000000000007C501008BCED012013
:106FD000C0AC00200000000010B58AB000238DF87E
:106FE00010309FED137B8DED067B089304AAACF067
:106FF00014FA10B92F200AB010BD2BF0DBFD0E499A
:10700000ACF0ABF932F00CFC01460C4C2046ABF076
:1070100060FE63680BB10A4A5A600AAB13E90F00BD
:107020008DE80F0004AB0CCB0448ABF000FEE2E7A8
:10703000000000000000000098501008BCED012086
:10704000C0AC00200000000010B58AB000238DF80D
:1070500010309FED137B8DED067B089304AAACF0F6
:10706000DCF910B92F200AB010BD2BF0A3FD0E499A
:10707000ACF073F932F0D4FB01460C4C2046ABF077
:1070800028FE63680BB10A4A5A600AAB13E90F0085
:107090008DE80F0004AB0CCB0448ABF0ACFDE2E78D
:1070A0000000000000000000B4501008BCED0120FA
:1070B000C0AC002000000000002202809FED027B97
:1070C00080ED027B026170470000000000000000BC
:1070D00008B5074B18680368D96903A3D3E90023EF
:1070E000884708BDAFF3008000E0373B015D030037
:1070F000F08202200000000030B587B00446C3785B
:10710000012B33D18378042B35D190F8B930002B83
:1071100035D0274B0093002301939FED237B8DED0A
:10712000027B0A6805920B6005A96846B0F0B4F8C6
:107130000546059808B13BF07FF90023059315BB80
:10714000D4F8A030019A9A4222D10623238000234A
:1071500084F8B930019BC4F8A430DDE90223C4E906
:107160002423134B0093134B009302E0182134F0B7
:10717000D3FD07B030BD182134F0CEFDF9E718215A
:1071800034F0CAFDF5E71621204634F0C5FD03E0D2
:107190001721204634F0C0FD054B0093054B0093AA
:1071A000E7E700BFAFF30080000000000000000030
:1071B000288D1008808C100810B58EB00446807899
:1071C00018B1032420460EB010BDE170C4F8AC30F5
:1071D000137823715388E38092ED027B84ED047B66
:1071E000D2E90401C4E90601254B0093254B009325
:1071F00000238DF804308DF805308DF80630ADF899
:1072000008309FED1D6B8DED046B8DED066B0893C3
:10721000ADF824300A930B930C9313788DF8043057
:10722000E388ADF808308DED047BCDE90601936964
:107230000893938BADF82430136A0A93536A0B9327
:1072400004F124016846B0F032FB20B104466846E0
:1072500034F022FCB6E7E078012800D004200223B5
:10726000A370012384F8B93004F188022146B0F0FC
:10727000C8F90024EBE700BF000000000000000098
:10728000808C10089C8C10082DE9F047D0B0064681
:107290000D460E2214AB09E09FED657B83ED007B6C
:1072A0004FF0000C83F808C0013A1033002AF3DADB
:1072B0003368DB6912A9304698470446002840F03D
:1072C000A28000220D9202AB0292039204923268D5
:1072D0000093176B05AB0EAA29463046B84788B90C
:1072E00033689B6A0EA93046984768B1A0280BD036
:1072F0002A68019000926B684F4A01210B20ACF084
:10730000EDFD01E0A0280BD133685B6B29463046C8
:107310009847824608B1A0280CD14FF0000921E01F
:107320002A68019000926B68444A01210B20ACF05E
:10733000D5FDE9E72B68019000936B68404A012175
:107340000B20ACF0CBFDE8E750AA02EB041252F898
:10735000F01C52F8EC2C2F686868824208BFB942D2
:107360001DD00134129BA3423FD9B9F1000FEBD0DD
:10737000631C12A91B01083301EB030E2201083222
:1073800001EB020C51F80380DEF8043041F8028072
:10739000CCF804309EF808308CF80830E1E7621C25
:1073A00050A901EB021212F8F81C2A7A9142D8D1A6
:1073B000621C9A4214D212A81201083200EB020E8B
:1073C0002101083100EB010C50F80280DEF80420A6
:1073D00040F80180CCF804209EF808208CF80820A2
:1073E000013B12934FF00109BBE7B9F1000F14D034
:1073F00033689B6912A930469847034638B9002480
:1074000005A8A8F014FA204650B0BDE8F0870D4A50
:1074100001210B20ACF062FDF1E72B68CDF804A050
:1074200000936B68084A01210B20ACF057FDE6E79A
:107430000000000000000000089810084C98100898
:10744000A8981008EC9810081C991008000000007B
:107450009FED037B80ED007B00220272704700BF2E
:1074600000000000FBFFFFFFA1F10801F0E700BFF3
:107470009FED037B80ED007B00220272704700BF0E
:107480000000000000000000A1F10801F0E700BFCB
:10749000002303704370837000F108030E2207E09D
:1074A0009FED0D7B83ED007B00219960013A18333D
:1074B000002AF5DA00F5B873012207E09FED067B9C
:1074C00083ED007B00219960013A1833002AF5DA38
:1074D000704700BFAFF30080000000000000000014
:1074E0000A7B9FED037B80ED007B0272704700BF3B
:1074F00000000000000000009FED037B80ED007B9A
:10750000704700BFAFF300800000000000000000E3
:1075100010B588B0002300930193029303930221D6
:107520008DF8101041F2A451ADF8121005939FEDA3
:10753000067B8DED067B406801688C686946A04734
:1075400008B010BDAFF30080000000000000000094
:1075500070B58AB0844614461D46EE460FC98EE8C3
:107560000F0001268DF8106041F2A453ADF81230DF
:10757000002305939FED0C7B8DED067BADF812404B
:107580002D68099505959EE80F008CE80F008CF892
:107590001060ACF81240CCF814508CED067B6046BD
:1075A0000AB070BDAFF300800000000000000000D2
:1075B00010B5154C20600022626004F11003A36036
:1075C000124B1A600B221A711A225A714AF0A0F853
:1075D000204649F09BF80E4B186068B108A3D3E928
:1075E00000234FF0FF304FF0FF3149F0DBF800216E
:1075F000064849F0E9F810BDFEE700BFAFF3008090
:107600000BE020FFE2030000584A0220504A02200B
:107610007047022000000000F0B589B0022048F059
:1076200067FE00B9FEE7684B1B68002B51D01020A5
:1076300048F05EFE644C23681B798DF81F30634D63
:1076400001231A460DF11F012868EBF033FE216873
:107650009DF81F20023A002392B209682868EBF0D7
:1076600029FE04AB5A4A07CA83E8070023681B684F
:107670001B7813F0200F2DD10024544B1868EBF029
:1076800070FC002849D19DF81F200632069B03EBB1
:10769000421306934C4B1A685369002B6DD110208E
:1076A00048F026FE00285ED0069B03F5FA73069389
:1076B000454B1A68117E474B997047490978D97034
:1076C000917904AA0092224640480068EBF09BF9A9
:1076D00067E0FEE72868EBF028FC20B9069BC03382
:1076E00006930124C9E72868EBF01FFC7FF048FEF1
:1076F00002460B4630A1D1E900017FF0E5FF0446C8
:107700000D4606987FF03CFE22462B467FF0FCFC9F
:1077100080F04AF906900124AFE79DF81F0006307B
:10772000C0007FF03DFE26A3D3E900237FF0A2FE38
:1077300006460F46254B1868EBF013FC7FF020FE41
:1077400002460B46304639467FF0BEFF06460F46DE
:1077500006987FF015FE32463B467FF0D5FC80F060
:1077600023F9069096E7184B196804AB22468979ED
:1077700016480068EBF031F913E011690B44A03BA7
:10778000029300238DF80C308DF80D30917904AB05
:107790000193124B009302AB22460C480068EBF0B9
:1077A0003DF908B909B0F0BD4FF48051002048F010
:1077B00021FFBBF061FDF5E70000000060E36641DA
:1077C0000000000080842E41004B02207047022000
:1077D000B4DF10087C830220CF8502207083022052
:1077E000F0B585B004460E4615461F461EA3D3E9E4
:1077F000002380F049F91E4BA3424FF00003B34130
:107800001AD303941B4903A8C8F066F904464EF640
:10781000602103A8C8F060F906464FF47A7103A806
:10782000C8F05AF900903346224613492846C7F05B
:107830006FFC7FB905B0F0BD024610492846C7F07D
:1078400067FC09A3D3E900232046314680F01CF9E8
:107850001446D6E7BDF80C2009492846C7F058FC65
:10786000E8E700BFAFF30080005C260500000000E1
:10787000FF5B260580EE3600D0301108C8301108B5
:10788000E030110800000000002370B5404C0546B0
:107890008AB0E36318B1008823606DF043FE3D4871
:1078A000EBF003FB3C4E3D4B304633603C4B73608A
:1078B00069F08AFA0021304674F0EEFD32A3D3E974
:1078C0000023A062C4E90623E7F092FFD4E906236F
:1078D00019431043C4E90601CDE900014FF0FF331D
:1078E0004FF0FF32A06AEBF0A7FB02224FF0FF310E
:1078F000A06AEBF0BBFB01206DF094FB4FF400732A
:1079000000222849A06AEBF0EBFCB0F5007F38D1EB
:1079100000239422CDE9073309933C23CDE90332B8
:1079200005939623A06A03A9069375F0EDF935B384
:10793000287C6DF077FF0546F0B9A06AEBF0BAFE3F
:107940006DF01EFF6DF050FB20B14FF480700021F0
:107950006BF0B8FC6DF058FB20B14FF400600021D3
:107960006BF0B0FCE7F0FEFF0120EBF031F80E4ABF
:107970000E49A06AE7F030FF28460AB070BDFF202C
:10798000D7E70725F8E700BF0DD501552000000017
:1079900090770120690345EC10660220A94E070884
:1079A000206602201064022081F70E08C1F70E083D
:1079B0000348044B834202D0034B03B1184770477E
:1079C000EC860220EC86022000000000064B0749EE
:1079D000C91A891048BF0131491003D0044B0BB1BB
:1079E00001481847704700BFEC860220EC86022051
:1079F0000000000010B5064C237843B9FFF7D8FF0C
:107A0000044B13B10448AFF300800123237010BD71
:107A10008E7002200000000094AF110808B5054BDD
:107A20001BB105490548AFF30080BDE80840FFF7EA
:107A3000CDBF00BF00000000107D012094AF1108F1
:107A4000A3F5803A704700BF174B002B08BF134BBC
:107A50009D46FFF7F5FF00218B460F461348144A59
:107A6000121AEDF006FE0E4B002B00D098470D4B7E
:107A7000002B00D098470020002104000D000D4885
:107A8000002802D00C48EDF069FB81F00DFF2000CA
:107A90002900E4F0ECFC80F0D7FE00BF00000800F5
:107AA0000000000000000000001200200012002072
:107AB000207902205D510F080000000008B5002267
:107AC00001210248B9F03FFD08BD00BF7C7F0220C4
:107AD00008B50348B4F0BAFD0248B4F0B7FD08BDDC
:107AE000305C0F08185C0F0808B50348B4F0E4FDDB
:107AF0000248B4F0E1FD08BD605C0F08485C0F0867
:107B000018B1034A1060002070472520704700BF5D
:107B1000287D012010B5044C044920683EF058FC33
:107B20002068FFF7EDFF10BDD8800220AC7F022057
:107B3000F0B58DB005460C4610468B68ABB1022BF4
:107B400038D000238122284682F01CF9A36862689D
:107B5000110C92B2029201919AB200921B0C1C4A33
:107B600001211D20ACF0BAF91CE000230593069317
:107B70000793089309930A930B9305A982F00FF9D1
:107B8000064688B10020374606B958B90023852239
:107B90002146284682F0F6F83B460E4A02211D2077
:107BA000ACF09CF90DB0F0BD05AA214628460EF0B8
:107BB0006DFFE8E705A982F0F9F8064608B1002054
:107BC000E1E705AA214628460EF018FFDBE700BFD3
:107BD000785C0F08AC5C0F08F0B589B005460C4620
:107BE00010468B684C2B00F22182DFE813F04D0029
:107BF00075008B00A300B900CF00E700FF0017015C
:107C00002D0145011F021F021F021F021F021F023A
:107C10001F021F021F021F021F021F021F021F025C
:107C20001F021F021F021F021F021F021F021F024C
:107C30001F021F021F021F021F021F021F021F023C
:107C40001F021F021F021F021F021F021F021F022C
:107C50001F021F021F021F021F021F021F021F021C
:107C60001F021F021F021F021F021F021F025B01D1
:107C700073018901A101B9011F021F02D5011F0271
:107C80001F021F02E901030200238DF814308DF852
:107C90001530ADF816308DF818308DF8193005A96B
:107CA00082F08BF8064688B10020374606B958B9ED
:107CB000002385222146284682F064F83B46BF4ACD
:107CC00002211D20ACF00AF909B0F0BD05AA214639
:107CD000284694F018FBE8E700238DF814308DF85F
:107CE00015308DF816308DF8173005A982F06CF834
:107CF000064608B10020D8E705AA2146284694F098
:107D000017FED2E700238DF814308DF815308DF86A
:107D100016308DF817308DF8183005A982F05BF811
:107D2000064608B10020C0E705AA2146284694F07F
:107D3000D2FBBAE700238DF81430ADF816308DF879
:107D400018308DF8193005A982F04CF8064608B1B4
:107D50000020AAE705AA2146284694F0C2F8A4E725
:107D600000238DF814308DF815308DF816308DF80D
:107D7000173005A982F03DF8064608B1002094E7C7
:107D800005AA2146284694F065FC8EE700238DF86D
:107D900014308DF815308DF816308DF817308DF8B9
:107DA000183005A982F02CF8064608B100207CE7BF
:107DB00005AA2146284694F0EBFC76E700238DF8CF
:107DC00014308DF81530ADF816308DF818308DF868
:107DD000193005A982F01BF8064608B1002064E7B7
:107DE00005AA2146284694F06AF95EE70023ADF81B
:107DF0001430ADF81630ADF818308DF81A308DF813
:107E00001B3005A982F00AF8064608B100204CE7AD
:107E100005AA2146284694F05FFE46E70023ADF808
:107E20001430ADF816308DF818308DF8193005A9DA
:107E300081F0FBFF064608B1002036E705AA21467F
:107E4000284694F00DFF30E70023ADF81430ADF86C
:107E50001630ADF818308DF81A308DF81B3005A9A2
:107E600081F0EAFF064608B100201EE705AA214678
:107E7000284694F0B7FF18E70023ADF81430ADF8AA
:107E800016308DF818308DF8193005A981F0DBFF18
:107E9000064608B1002008E705AA2146284695F0C5
:107EA00048F802E70023ADF814308DF81630ADF82D
:107EB00018308DF81A308DF81B3005A981F0CAFFF3
:107EC000064608B10020F0E605AA2146284694F0AF
:107ED00034FAEAE600238DF81430ADF816308DF848
:107EE00018308DF8193005A981F0BBFF064608B19E
:107EF0000020DAE605AA2146284694F031FDD4E6B2
:107F000000238DF81430ADF81630ADF818308DF828
:107F10001A308DF81B3005A981F0AAFF064608B17A
:107F20000020C2E605AA2146284694F0EEFABCE6F7
:107F30000023ADF814308DF81630ADF818308DF8F8
:107F40001A308DF81B3005A981F099FF064608B15B
:107F50000020AAE605AA2146284694F0CAF8A4E61D
:107F600000238DF814308DF815308DF81630ADF8EB
:107F70001830ADF81A308DF81C308DF81D3005A979
:107F800081F084FF064608B100208EE605AA21464E
:107F9000284695F0CCFA88E600238DF814308DF849
:107FA000153005A981F079FF064608B100207CE66E
:107FB00005AA2146284693F0CCFB76E6AC5C0F0878
:107FC00000238DF81430ADF81630ADF81830ADF848
:107FD0001A308DF81C308DF81D3005A981F064FF32
:107FE000064608B1002060E605AA2146284695F01D
:107FF00073F85AE600238DF81430ADF81630ADF85A
:108000001830ADF81A30ADF81C308DF81E308DF8F0
:108010001F3005A981F04FFF064608B1002044E655
:1080200005AA2146284695F033F93EE60023812231
:10803000284681F0A7FEA3686268110C92B20292F2
:1080400001919AB200921B0C024A01211D20ABF053
:1080500045FF39E6785C0F08F0B58BB006460C4654
:1080600010468B68022B39D0042B4BD09BB10023D8
:108070008122304681F086FEA3686268110C92B2BC
:10808000029201919AB200921B0C254A01211D20F7
:10809000ABF024FF1AE0ADF8103000220023CDE948
:1080A000062304A981F00EFF054688B100202F4663
:1080B00005B958B9002385222146304681F062FE79
:1080C0003B46184A02211D20ABF008FF0BB0F0BD63
:1080D00004AA2146304610F009FBE8E70023049388
:1080E0000593069307930893099304A981F0F1FE81
:1080F000054608B10020DAE704AA2146304610F010
:108100003BFCD4E704A981F0EBFE054608B1002052
:10811000CDE704AA2146304610F074FBC7E700BF44
:10812000785C0F08AC5C0F08F0B589B005460C46CA
:1081300010468B68ABB1012B37D000238122284633
:1081400081F020FEA3686268110C92B20292019144
:108150009AB200921B0C1B4A01211D20ABF0BEFEFF
:108160001BE000230493059300220023CDE906239E
:1081700004A981F0BCFE064688B10020374606B946
:1081800058B9002385222146284681F0FBFD3B4655
:108190000D4A02211D20ABF0A1FE09B0F0BD04AADA
:1081A0002146284696F0FDF8E8E704A981F0A6FEEE
:1081B000064608B10020E1E704AA2146284610F04F
:1081C0002FFEDBE7785C0F08AC5C0F08F0B59DB0C4
:1081D00006460C4615468B68042B57D8DFE803F09B
:1081E0000326563748006022002104A8EDF041FA2A
:1081F00004A9284681F089FE054688B100202F4653
:1082000005B958B9002385222146304681F0BAFDD0
:108210003B46284A02211D20ABF060FE1DB0F0BD98
:1082200004AA2146304611F01FF8E8E70023ADF814
:10823000103004A9284681F06FFE054608B10020E1
:10824000DDE704AA2146304611F004F9D7E7002300
:10825000ADF8103004A9284681F065FE054608B146
:108260000020CCE704AA2146304610F06BFFC6E799
:1082700004A9284681F05EFE054608B10020BEE74D
:1082800004AA2146304611F053F9B8E700238122B1
:1082900081F078FDA3686268110C92B2029201919C
:1082A0009AB200921B0C044A01211D20ABF016FE6D
:1082B000B4E700BFAC5C0F08785C0F08F0B595B070
:1082C00006460C4615468B68052B7BD8DFE803F085
:1082D0000326374859670023ADF8103005930693FD
:1082E00004A9284681F02DFE054688B100202F46BE
:1082F00005B958B9002385222146304681F042FD58
:108300003B463A4A02211D20ABF0E8FD15B0F0BD16
:1083100004AA2146304697F0D1F8E8E70023ADF8EB
:10832000103004A9284681F013FE054608B100204C
:10833000DDE704AA2146304697F0DFF8D7E704A826
:1083400081F00DFE04A9284681F016FE054608B10D
:108350000020CCE704AA2146304611F041FBC6E7D5
:108360000023ADF8103004A9284681F00CFE054624
:1083700008B10020BBE704AA2146304697F01EF959
:10838000B5E704A9284681F005FE054608B100209E
:10839000ADE704AA2146304611F082FAA7E7002390
:1083A000ADF810300593069304A9284681F0F9FD35
:1083B000054608B100209AE704AA2146304697F006
:1083C00053F894E70023812281F0DCFCA368626803
:1083D000110C92B2029201919AB200921B0C044AC3
:1083E00001211D20ABF07AFD90E700BFAC5C0F08C7
:1083F000785C0F08F0B587B005460C4610468B68D0
:10840000ABB1402B33D000238122284681F0BAFC47
:10841000A3686268110C92B2029201919AB2009222
:108420001B0C1C4A01211D20ABF058FD17E0002356
:10843000ADF8143005A981F0BBFD064688B10020D7
:10844000374606B958B9002385222146284681F0CF
:1084500099FC3B46104A02211D20ABF03FFD07B0BE
:10846000F0BD05AA2146284697F087F9E8E70023E2
:108470008DF814308DF8153005A981F0A0FD064661
:1084800008B10020DCE705AA2146284611F0C2FB0E
:10849000D6E700BF785C0F08AC5C0F08F0B587B07A
:1084A00006460C4610468B68072B00F2C280DFE8B8
:1084B00003F0042A40586A8096AE00238DF81030ED
:1084C0008DF814308DF816308DF8173004A981F02E
:1084D0007DFD054688B100202F4605B958B9002317
:1084E00085222146304681F04DFC3B465B4A022105
:1084F0001D20ABF0F3FC07B0F0BD04AA21463046C6
:1085000097F06AFAE8E700238DF810308DF8123002
:108510008DF813308DF8143004A981F05EFD054606
:1085200008B10020D8E704AA2146304612F0B4F979
:10853000D2E700238DF810308DF811308DF814300B
:108540008DF816308DF8173004A981F04DFD0546E1
:1085500008B10020C0E704AA2146304612F018F8FE
:10856000BAE700238DF810308DF8113004A981F09E
:1085700042FD054608B10020AEE704AA2146304678
:1085800012F0D4FDA8E700238DF810308DF81430D8
:108590008DF816308DF8173004A981F033FD0546AB
:1085A00008B1002098E704AA2146304611F0A4FE45
:1085B00092E700238DF810308DF812308DF81330CB
:1085C0008DF8143004A981F024FD054608B100207F
:1085D00082E704AA2146304612F0A6F97CE7002380
:1085E0008DF810308DF811308DF814308DF816306C
:1085F0008DF8173004A981F013FD054608B100205D
:108600006AE704AA2146304612F00AF864E700231C
:108610008DF810308DF8113004A981F008FD054661
:1086200008B1002058E704AA2146304612F0A2FD06
:1086300052E700238122304681F0A4FBA3686268E0
:10864000110C92B2029201919AB200921B0C044A50
:1086500001211D20ABF042FC4DE700BFAC5C0F08D0
:10866000785C0F0870B58CB005460C468B6833BB40
:1086700000200021CDE90401ADF818308DF81A3042
:108680008DF81C30ADF8283004A9104681F0D6FCD6
:10869000064670B1002036B30023852221462846C5
:1086A00081F070FB3346114A02211D20ABF016FC0D
:1086B00017E004AA2146284617F0CCFBEBE700237D
:1086C000812281F05FFBA3686268110C92B2029272
:1086D00001919AB200921B0C054A01211D20ABF0BA
:1086E000FDFB0CB070BD0028FBD1D5E7AC5C0F08DA
:1086F000785C0F08F0B587B006460C4610468B68CC
:10870000402B51D024D8012B3BD0022B07D104A9F8
:1087100081F0A9FC0546002840D0002007E0002B8E
:1087200067D104A981F091FC054620B300202F46B3
:1087300005B958B9002385222146304681F022FB35
:108740003B46364A02211D20ABF0C8FB07B0F0BD06
:10875000412B3BD0422B4CD100238DF81030ADF88B
:108760001230ADF8143004A981F092FC05460028BF
:1087700039D00020DBE704AA2146304698F038FEC5
:10878000D5E704A981F068FC054608B10020CEE7D2
:1087900004AA2146304698F035FEC8E704AA2146CF
:1087A000304698F039FEC2E700238DF810308DF87E
:1087B000113004A981F05EFC054608B10020B6E73F
:1087C00004AA2146304698F031FEB0E704A981F0B2
:1087D00058FC054608B10020A9E704AA2146304606
:1087E00098F030FEA3E704AA2146304698F03DFEFB
:1087F0009DE7002381222146304681F0C3FAA36819
:108800006268110C92B2029201919AB200921B0C12
:10881000034A01211D20ABF061FB97E7AC5C0F0818
:10882000785C0F0870B586B005460C468B68D3B9E6
:1088300005A9104681F06BFC064670B1002036B3E6
:10884000002385222146284681F09CFA3346114AAE
:1088500002211D20ABF042FB17E005AA2146284665
:108860001AF0C4FFEBE70023812281F08BFAA368A2
:108870006268110C92B2029201919AB200921B0CA2
:10888000054A01211D20ABF029FB06B070BD002870
:10889000FBD1D5E7AC5C0F08785C0F0830B583B02E
:1088A0000446154643683F2B25D8032B6FD3DA1EA9
:1088B0003C2A6CD8DFE802F047416B596B4D6B6B7B
:1088C0006B6B6B6B6B6B6B6B6B6B6B6B6B6B6B6BF8
:1088D0006B6B6B6B6B6B6B6B6B6B6B6B6B6B6B5300
:1088E0006B6B6B6B6B2F6B6B356B656B6B6B6B6B50
:1088F0006B286B5F3B00B3F5407F48D10A460146C9
:108900002846FFF769F904E00A4621462846FFF7A2
:108910000FF903B030BD0A4621462846FFF79CFBFD
:10892000F7E70A4621462846FFF7FEFBF1E70A462D
:1089300021462846FFF74AFCEBE70A46214628462F
:10894000FFF7BCFCE5E70A4621462846FFF752FD43
:10895000DFE70A4621462846FFF7A0FDD9E70A4689
:1089600021462846FFF77EFED3E70A4621462846E1
:10897000FFF7C0FECDE70A4621462846FDF784FDF5
:10898000C7E70A4621462846FFF74CFFC1E79AB2DF
:1089900000921B0C054A01211D20ABF09FFA002319
:1089A000C3222146284681F0EDF9B2E7D85C0F08D2
:1089B00040F25343984235D015D8992820D040F240
:1089C0000113984207D129293ED81A291DD201291D
:1089D00022D8012070473C2803D1022930D8012039
:1089E00070470020704740F20E53984220D0194B38
:1089F000984203D1122921D00020704700207047EF
:108A0000013906291ED8012070471A394FF2091082
:108A1000C84000F001007047032901D000207047D2
:108A200001207047012901D90020704701207047BB
:108A300061B1023901290BD900207047012070472C
:108A400000207047002070470020704701207047C9
:108A50000120704705FCF1FF10B5164C4FF4E4728D
:108A600000212046ECF005FE0923236163611249D1
:108A7000A161124BE3614FF4806222620023A36282
:108A80006362E362C4F8F0100D49C4F8F410C4F84E
:108A9000F820C4F80031C4F8FC30C4F8043106E012
:108AA000C3F10F020749895C024AD15401330F2BED
:108AB000F6D910BD8C850120F45C0F088C81012053
:108AC0008C7D0120005D0F082DE9F04704468846A3
:108AD0009146274B1B78DBB2532B1BD104EB44028E
:108AE000234B03EBC203D3F80071D3F8FC50AF4221
:108AF00013D80026ED1B4D4528BF4D4645BB36B16A
:108B000004EB44041A4B03EBC403C3F80071304672
:108B1000BDE8F087FFF7A0FFE0E71346144A02EB39
:108B2000C30ADAF8F860F61B4E4528BF4E46DAF85D
:108B3000F410324639444046ECF046FEB044A9EB0E
:108B400006093744DAF8F830BB42D3D10027D1E721
:108B500004EB4402064B03EBC203D3F8F4102A469D
:108B600039444046ECF030FE2E442F44C7E700BFA6
:108B70008C850120F8B50F461646451C05EB4505CA
:108B8000164B03EBC50500EB400003EBC003DC6AAA
:108B9000012C11D0022C1CD014B100242046F8BDA9
:108BA000284687F0ECFB8642F8D8324639462846FC
:108BB00087F0F1FB3446F1E7284687F0E0FB3446C6
:108BC000864228BF044622463946284687F0E3FB02
:108BD000E4E7284687F001FC0446DFE78C850120A6
:108BE000F8B504460D4616460A4B1B78DBB2532BEC
:108BF0000DD1EFF311874FF0200181F31188324638
:108C000029462046FFF7B6FF87F31188F8BDFFF726
:108C100023FFEEE78C850120F8B504460F46164683
:108C20001D46194B1878C0B2532826D1082C27D8D6
:108C3000EFF311834FF0200181F3118894B1124AB0
:108C4000601C00EB4001C900575000EB400002EBF4
:108C5000C000466004EB440102EBC1021562002132
:108C60009162516204EB4404074A02EBC402069984
:108C7000D16283F311880020F8BDFFF7EDFED5E740
:108C80004FF0FF30F8E700BF8C850120F8B50446AF
:108C90000F4616461D46184B1878C0B2532824D1EB
:108CA000082C25D8EFF311804FF0200181F31188B3
:108CB0007CB104EB4402104B03EBC203C3F8F07029
:108CC000C3F8F460C3F8F8500022C3F80021C3F8D9
:108CD000FC2004EB4404084B03EBC403069AC3F8DE
:108CE000042180F311880020F8BDFFF7B5FED7E717
:108CF0004FF0FF30F8E700BF8C85012038B50446FF
:108D00000D460E4B1B78DBB2532B11D1082C12D819
:108D1000EFF311824FF0200181F3118804EB44043A
:108D2000064B03EBC403DD6282F31188002038BDDB
:108D3000FFF792FEEAE74FF0FF30F8E78C8501205D
:108D400001282DD002461C4880FB02301044D31766
:108D5000C3EBA003981C202A12D000B500EB420CF4
:108D60004FEA4C0C0CF1010C03F1010E4FEA4E0ED0
:108D70009CFBFEFC4FEA4C0C013392000A3209E0E6
:108D80004FF01A0C013392000A320FE0CA54013B33
:108D9000A2EB0C02002BF9DC06230B705DF804FB40
:108DA00000207047CA54013BA2EB0C02002BF9DCF7
:108DB00006230B70704700BF93244992B1F5004F12
:108DC0003CD208B5012808D00238062828D8DFE8A8
:108DD00000F014271D2727241F0001EB8101490003
:108DE000023100F1553080FB0130A0EBE17000282A
:108DF0001DDBB0F5004F24DA08BD01EB810301EB68
:108E00004301013101EBD1714810F0E7C800EEE7F2
:108E100001EB410001EB8000E9E709B91820E8E720
:108E2000094B0A4A40F25F3109487FF0E7FC094BE1
:108E3000064A40F2623106487FF0E0FC4FF0FF3016
:108E400070474FF0FF30D7E7145D0F08CC640F0870
:108E50001C5D0F08585D0F0808B54B1E272B0FD857
:108E60000731174B83FB0123C917C1EBE30101381D
:108E700007281CD8DFE800F00B0F1B131B1B221761
:108E8000104B114A40F2F23110487FF0B7FC104B02
:108E900053F8210008BD0F4B53F82100FAE70E4BA1
:108EA00053F82100F6E70D4B53F82100F2E70C4B85
:108EB000054A40F2FA3105487FF0A0FC0020E9E7BE
:108EC00079787878645D0F0884640F081C5D0F085A
:108ED00078640F086C640F0860640F0854640F080E
:108EE000145D0F082DE9F04789469246804608B385
:108EF000002425464C453DD2220108EB04135E6850
:108F0000DF68B6F5004F20D2B7F5004F24D25146A6
:108F100018F80200FFF7A0FF102824D8012383408F
:108F2000B34234DD043038440544B5F5004F31DA3E
:108F30000134DFE711B90C460025DBE7174B184A6F
:108F400040F2DB3117487FF059FC174B144A4FF4BD
:108F5000787114487FF052FC144B114A40F2E13111
:108F600010487FF04BFC124B0D4A40F2E3310D48A4
:108F70007FF044FCB5F5004F02D22846BDE8F087EB
:108F80000C4B074A40F2EA3106487FF037FC4FF0BD
:108F9000FF35F2E74FF0FF35EFE700BFAC5D0F089C
:108FA00098640F081C5D0F08C85D0F08F05D0F087E
:108FB0001C5E0F08385E0F0838B5102905D830FA46
:108FC00001F402D101F1FF3E18E00E4B0E4ABA2126
:108FD0000E487FF013FC1968CD10545D20FA0EFC8A
:108FE0000CF0010CC94301F007010CFA01F1214317
:108FF00051550EF1FF3E196801311960BEF1000FA5
:10900000E9DA38BD5C5E0F082C640F081C5D0F08A0
:1090100008B5431E272B22D8024600F1080300FBA7
:1090200003F304331801012A13DD144B83FB0213ED
:109030001344D117C1EBA301023101EB810303EB10
:1090400083030A3B01FB03F3373BC01A062A00DD0A
:109050002438A0F1D003B3F5E64F07D808BD084B7C
:10906000084A4FF4AA7108487FF0C8FB074B054A2D
:109070004FF4AE7104487FF0C1FB00BF93244992C6
:10908000A05E0F08C8630F081C5D0F08E05E0F08A4
:1090900038B5032914D805460C46FFF7B9FF002858
:1090A00015DB04EB840304EBC3040A4B23445B5736
:1090B000094A2244525702FB03F3C3EBE00038BDD8
:1090C000064B074A40F2491106487FF097FB0730EC
:1090D000E7E700BF88650F08E4640F08045F0F0826
:1090E00040640F081C5D0F0808B50378A3F1150C48
:1090F000BCF19C0F11D800290FDB8B420DDD002A3B
:109100000BDB934209DD02FB031100EBE10001F0F0
:109110000701407887F0B9F908BD034B034A40F2D4
:10912000023103487FF06AFB145F0F08AC630F083D
:109130001C5D0F0808B590F800C0ACF1150EBEF12B
:109140009C0F15D8002913DB8C4511DD002A0FDB9D
:1091500094450DDD02FB0C1101F0070CC910013123
:109160006BB1435C012202FA0CF21343435408BD75
:10917000074B084A40F20B3107487FF03FFB425C47
:10918000012303FA0CF3DB435BB213404354EEE7D5
:10919000145F0F08A0630F081C5D0F0808B5436833
:1091A00001EB4101994207DB002B35DD82689A42D1
:1091B00009D00022104631E01B4B1C4A4FF433719A
:1091C0001B487FF01BFBC16803EB4302914202D0B6
:1091D0000022104622E002699A4202D00022104684
:1091E0001CE042699A4202D00022104616E0016853
:1091F0004FEA830CB1EB830F04DB82699A4209DAF0
:10920000002200E000228069844509DC994209DBE4
:10921000012003E00122F6E700221046104408BDB9
:109220000020FBE70020F9E7645F0F0868630F0880
:109230001C5D0F082DE9F047441E1D2C0DD8074674
:109240000D46024600212846ECF013FA4FF00109C2
:1092500005F804904FF0000A0DE0124B124A40F25C
:10926000671112487FF0CAFA0221484687F0F2F8E7
:1092700081460AF1010ABA4512DA0024BC42F3DA47
:1092800005EB04084946285D87F0E4F828550134C9
:10929000BC42F3DA98F80130584088F80000EDE756
:1092A000BDE8F087745F0F08FC630F081C5D0F08B2
:1092B0002DE9F04F83B001900C9D03F1FF3ABAF114
:1092C0001D0F0AD88B4690461F461A460021284695
:1092D000ECF0CFF94FF0000913E0144B144A4FF4AF
:1092E000C17114487FF08AFA314618F8040087F0FB
:1092F000B1F82B5D43402B550134BC42F4DB09F13E
:109300000109D9450EDA019B13F80960294611F8C5
:10931000013B5E4052462846ECF091F9002405F8E6
:109320000A40EAE703B0BDE8F08F00BF745F0F08A2
:10933000E0630F081C5D0F082DE9F04F8FB005901A
:10934000032A2CD80F4691461D46002927DD2829DF
:1093500025DC02EB820302EBC3032F4A1A44545666
:109360002E4A134413F901800846FFF751FE0028E6
:109370001CDBC61049463846FFF78AFE049096FB70
:10938000F4FA04FB1A66A31B0393AAEB080A06A9C6
:109390004046FFF74FFF059F4FF0000B22E0204BA8
:1093A000204A4FF4947120487FF028FA0730E0E714
:1093B000F95CA95401332244B34204DA5345F7D18E
:1093C0000399521AF4E7049B0BEB0302002304E019
:1093D00019F80310A954013322444345F8DB3744FC
:1093E0000BF1010BA34514DA039B9B45B4BF564612
:1093F0000AF10106059B049A03EB0209CDF80090DF
:10940000434606AA31463846FFF752FF5A46002324
:10941000D2E70FB0BDE8F08FE4640F0888650F084D
:10942000B05F0F0818640F081C5D0F0808B528B15D
:109430000078A0F115039C2B07D808BD064B074AFE
:1094400040F2EF2106487FF0D9F9064B034A40F27B
:10945000F12103487FF0D2F918600F0828630F0844
:109460001C5D0F0828600F082DE9F04F85B00390B0
:10947000019117461046FFF7D9FF064600F1FF3A63
:10948000D3464FF00008CDF808A036E04FF0050BAA
:1094900039E0D1464A4629463846FFF725FE18B935
:1094A000019BB8EBC30F0DDB0134012C1DDCABEBD2
:1094B00004050BF1010313F0020FEAD1029BA3EBA9
:1094C0000A09E7E74FEAE8036FEA080101F007013C
:1094D000039AD05C86F0D9FF03464A4629463846AF
:1094E000FFF728FE08F10108DEE70AF1010AB2459C
:1094F00001DA0024D9E7ABF1020BBBF1000F05DD67
:10950000BBF1060FC2D04FF0000AF0E7019BB8EBA9
:10951000C30F02D105B0BDE8F08F034B034A40F200
:10952000572103487FF06AF984600F08B8630F0879
:109530001C5D0F082DE9F04F83B007468B46FFF7FF
:1095400075FF824607240CE0002322460621384698
:10955000FFF7F0FD0023062221463846FFF7EAFD1B
:109560000234AAF10703A342EEDC6FF003062DE0FC
:10957000022B10D0042B0ED00134042C25DC84EAFD
:10958000E472A2EBE47286EAE673A3EBE67393421D
:10959000EEDC1346ECE7E51C06F1030900234A461E
:1095A0002946384686F075FFAAF1040800234A468A
:1095B00008EB0401384686F06CFF002308EB060236
:1095C0002946384686F065FFD6E70136042E02DCD0
:1095D0006FF00304D1E769465846FFF7B1FB8146B7
:1095E0004FF0000838E01EB109F1FF33B34205D156
:1095F00001364E452EDAB8F1000FF4D009F1FF33F1
:10960000434524D1002EF3D04FF0FF351AE0B5B119
:1096100000233846FFF78EFD0134012C11DC08F1E0
:1096200008036B4413F8081C214406F108036B443B
:1096300013F8082C2A44002CE9D00023E9E7012381
:10964000E7E70135012DD3DC4FF0FF34E5E74FF0BC
:10965000FF35F7E708F10108C84501DA0026C8E739
:10966000BBF1060F13DC03B0BDE8F08FE31241F647
:10967000257101FB03F383EA440401320B2AF5DD73
:1096800044EA0B345FEAA44904D1C84620E05C46B2
:109690000022F3E7114B124A4FF4F97111487FF0A1
:1096A000ADF8AAF10B05354404F0010B5B464246C8
:1096B00029463846FFF73EFD5B462A464146384676
:1096C000FFF738FD64100136022EEADD08F10108CB
:1096D000B8F1050FC7DC4E46F6E700BF98600F08EB
:1096E00084630F081C5D0F082DE9F047D3B2072BE8
:1096F00008D88246884617460846FFF797FE8146F7
:109700000026ACE0594B5A4A40F2612159487FF09B
:1097100075F8351985F0010505F001053246214639
:109720004046FFF7E1FC2B1A18BF012332462146C1
:109730004046FFF7FFFC01344C4580F28F803246F3
:1097400021465046FFF7D0FC0028F4D1072F7ED8E1
:1097500001A353F827F000BF13970008799700087A
:10976000839700089B970008B5970008D1970008D9
:10977000FB9700082598000886F0010505F0010513
:10978000CCE73D4D85FB0435A5EBE47505EB4505C0
:10979000AC4214BF00250125C0E73519364B83FBC9
:1097A0000523A3EBE57303EB43039D4214BF0025A0
:1097B0000125B3E7304D85FB0435A5EBE47506EBD9
:1097C000D67305EB630585F0010505F00105A5E7F6
:1097D00004FB06F2002A02F00103B8BF5B421946FF
:1097E000254B83FB0203A3EBE27303EB4303D31A82
:1097F000D9420CBF0125002590E704FB06F2002AA0
:1098000002F00105B8BF6D421B4B83FB0213A3EBB3
:10981000E27303EB4303D31A1D4485F0010505F001
:1098200001057BE7351905F0010548BF6D4204FBD2
:1098300006F2114B83FB0213A3EBE27303EB43032A
:10984000D31A1D4485F0010505F0010566E70B4BB1
:10985000074A40F2712107487EF0D0FF01364E459D
:1098600001DA002468E7BDE8F08700BFA8600F08B0
:109870005C630F081C5D0F0856555555145D0F08A5
:109880002DE9F041CBB2072B08D815464A4B53F8C7
:10989000203041EAC3010C4600220EE0474B484A03
:1098A00040F2062147487EF0A9FF631240F237508C
:1098B00000FB03F383EA44040132092AF5DD44EA9C
:1098C000812484F4A84686F01206E41301D12746C9
:1098D00011E03D4B3A4A40F20D213A487EF08EFFAE
:1098E0003946304686F0D1FD03463A4608212846DF
:1098F000FFF720FC0137052FF2DD0621304686F008
:10990000C4FD0346072208212846FFF713FC072160
:10991000304686F0BAFD0346082211462846FFF776
:1099200009FC0821304686F0B0FD034608220721D5
:109930002846FFF7FFFB09270BE03946304686F043
:10994000A4FD03460822C7F10E012846FFF7F2FBEB
:1099500001370E2FF1DD2846FFF768FD80460DE048
:1099600008F1FF373F1B2146304686F08EFD034647
:10997000082239462846FFF7DDFB0134072CEFDDCE
:1099800008240DE0A8F10F0727442146304686F051
:109990007CFD03463A4608212846FFF7CBFB0134FD
:1099A0000E2CEFDD0123A8F1080208212846FFF75D
:1099B000C1FBBDE8F08100BF3C630F08A8600F0841
:1099C0004C630F081C5D0F08CC600F082DE9F04FA9
:1099D00087B08B4615461C46DDF840A09DF9443003
:1099E00001939DF84860149F8046A0B1002C1ADDB9
:1099F000544518DCBAF1280F15DC032D05D8019B5E
:109A0000B3F1FF3F01DB072B16DD9A4B9A4AD021B9
:109A10009A487EF0F3FE0029E8D0994B964ACE2171
:109A200096487EF0EBFE974B934ACF2193487EF009
:109A3000E5FE544514DA013429462046FFF728FB99
:109A40004FEAC009224659464046FFF74BFAB0F1AB
:109A5000FF3FEED08145ECDB02904FF0010906E0BC
:109A60000020387007B0BDE8F08F09F10109B9F1A5
:109A7000030F0DDC002EF8D05FFA89FA514620461C
:109A8000FFF706FB029BB3EBC00FEEDC5546ECE79D
:109A9000A300113303FB03F307330BD4DB105A1C71
:109AA00000213846EBF0E5FD002305939946039528
:109AB000A24614E00733F1E7AA68E310D05CE34361
:109AC00003F00703184105AB3A4601210840FFF7B0
:109AD00073FA0134EB68A342EEDC09F10109D945C0
:109AE00018D24FEA091608EB091505AB3A460421CE
:109AF00018F80600FFF760FA6C68514618F806007F
:109B0000FFF7AAF9014605AB3A462046FFF754FA9B
:109B10000024DFE7039D5446DDF81480029B98453E
:109B20002ED129465046FFF7B3FA4FEAC009B8EBE9
:109B3000C00F2BDCA9EB0801042900DD042105ABD3
:109B40003A460020FFF738FA059B5A4203F0070314
:109B500002F0070258BF5342C3F10803584203F012
:109B6000070100F0070005AB3A4658BF414200200C
:109B7000FFF722FA059B13F007080DD1EC2619E038
:109B8000414B3D4AF2213D487EF038FE3F4B3A4A78
:109B9000F6213A487EF032FE3D4B374AFC213748E9
:109BA0007EF02CFE05AB3A4608213046FFF704FA5A
:109BB00086F0FD06059B4B45F4DB139B2A462146A8
:109BC0003846FFF7B9FB3946204686F08CFC204624
:109BD000FFF71EFA011E21DB3A46C9101398FFF762
:109BE00043FC21463846FFF7A5FC1399204686F032
:109BF0007AFC019BB3F1FF3F30D09DF80430072B76
:109C000031D8019C224639461398FFF76DFD3A463C
:109C100021462846FFF734FE012023E70731DBE722
:109C2000224639464846FFF75FFD08F10108B8F1C2
:109C3000070FE2DC4FFA88F4224639464846FFF720
:109C400053FD3A4621462846FFF71AFE384686F06D
:109C5000EEFC8642E4DD06460194E1E76FF0004643
:109C6000DDF84C90E3E70B4B034A4FF48C7103484B
:109C70007EF0C4FD44610F08A8640F081C5D0F0846
:109C8000AC5D0F08DC600F0888610F08A0610F0849
:109C9000BC610F08A8600F0808B558B103460078EA
:109CA000002914DB884214DD002A14DB904208DC12
:109CB00000200DE00A4B0B4A40F2F9210A487EF0E1
:109CC0009DFD1846FFF710FA38B1012000E0002092
:109CD00008BD0020FCE70020FAE70020F8E700BFFD
:109CE00018600F0814630F081C5D0F0810B50446B8
:109CF00038B1217861B10848EBF0C3FC50B10134B0
:109D0000F7E7064B064A40F2293106487EF076FD19
:109D1000012010BD0020FCE7DC610F08CC610F08BA
:109D2000F8620F081C5D0F0808B5024638B11378B9
:109D300063B1303BDBB2092B0AD80132F7E7054BA0
:109D4000054A4FF44D7105487EF058FD012008BDCD
:109D50000020FCE7CC610F08E4620F081C5D0F08CF
:109D600008B5FFF72BF8B0F1FF3F0CD0B0F5004F6E
:109D700002D20730C00808BD044B054A40F2423108
:109D800004487EF03BFD4FF0FF30F4E70C620F0813
:109D9000C4620F081C5D0F082DE9F04184B0C1B109
:109DA000064615460C460846EBF01BFD8046012092
:109DB0008DF800004146FFF701F80746B0F1FF3F7C
:109DC0000ED0CDF80480002811DC0020039001465D
:109DD0001CE0294B294A40F27A3129487EF00EFDD9
:109DE000284B264A40F27F3125487EF007FDC21DF0
:109DF000D20800212846EBF03CFCE6E7224B1F4A44
:109E000040F289311E487EF0F9FC01342378ABB171
:109E1000A3F13002D2B2092AF0D800EB800003EBA4
:109E20004003A3F1300001310329EED103AB2A46F0
:109E30000A21FFF7C1F800200146E6E700290CDC03
:109E4000039BBB4211D1029504AB13E90F0086E8D6
:109E50000F00304604B0BDE8F08101EB410103ABD7
:109E60002A460131FFF7A8F8EAE7084B034A4FF406
:109E7000657103487EF0C2FC2C620F08AC620F08CB
:109E80001C5D0F083C620F084C620F0864620F08EB
:109E90002DE9F04385B0B9B1804617460E46084615
:109EA000EBF09FFC044602208DF800002146FEF7EF
:109EB00085FF8146B0F1FF3F0DD00194002811DCF1
:109EC0000024039425461CE0294B2A4A4FF467716D
:109ED00029487EF093FC294B264A40F2A1312648BE
:109EE0007EF08CFCC21DD20800213846EBF0C1FB8D
:109EF000E6E7234B1F4A40F2AB311F487EF07EFC61
:109F000001363178B9B11F48EBF0BBFB0028F0D027
:109F100004EB4404C4EB04141A4A831A1C440135AC
:109F2000022DEDD103AB3A460B212046FFF744F852
:109F300000242546E4E7002D0CDC039B4B4510D1A3
:109F4000029704AB13E90F0088E80F00404605B004
:109F5000BDE8F08303AB3A4606212046FFF72CF814
:109F6000EBE7094B034A40F2B63103487EF046FC6A
:109F7000CC610F0890620F081C5D0F083C620F084F
:109F800080620F08DC610F0864620F08014B0360F8
:109F9000704700BF5C690F08014B0360704700BF4A
:109FA00084690F08014B0360704700BFF4690F0814
:109FB000044A026030324260034A4260034A02604F
:109FC000704700BFA4690F0884690F085C690F0817
:109FD000A0F10400ECE700BF08B5034A02211D20F0
:109FE000A9F07CFF08BD00BF2C660F0808B5034A26
:109FF00002211D20A9F072FF08BD00BF3C660F08BA
:10A0000008B5044A02211D20A9F068FF024BFF2277
:10A010001A7008BD4C660F08C885022008B50A48AA
:10A020000368DB690121984740B908482DF0A4F87E
:10A030002BF02AFB03681B6F984708BD65F010FFE3
:10A040000121E2F069FAF0E7D8FB012098B0002086
:10A0500010B52CF065FB2CF09BFB0A4C204630F031
:10A06000E9FF204630F0D0FF00224FF4617106482E
:10A070009EF067F900B910BD044A01212120A9F022
:10A080002DFFF8E7F0CD002088A2002068660F08B9
:10A0900010B50446034B03600821B6F08EF8204645
:10A0A00010BD00BFF4690F0810B50446064B0360ED
:10A0B00030334360054B4360054B03601021B6F01D
:10A0C0007CF8204610BD00BFA4690F0884690F0802
:10A0D0005C690F08A0F10400E6E700BF10B5044674
:10A0E000034B03600821B6F068F8204610BD00BF9E
:10A0F00084690F0810B50446034B03600421B6F0D1
:10A100005CF8204610BD00BF5C690F08012800D034
:10A1100070474FF6FF739942FAD170B584B01F4D66
:10A120000024C5F8C84085F8CC4085F8CD4085F8B6
:10A13000CE4085F8CF402022214605F1D000EBF03B
:10A1400098FA85F8F04085F8F14085F8F240144E11
:10A1500003940294134B019302230093124B134A6E
:10A16000012130460FF090FD114D2A46114930462D
:10A17000E9F0B1FE1048046044608460C4600F4B95
:10A1800003600F4B43600F4B0360303343602A463C
:10A190000D49E9F0A0FE04B070BD00BF8487012026
:10A1A00068870120CDA10008ED9F0008D99F000815
:10A1B000307B022099F70908548701205C690F0859
:10A1C00084690F08A4690F08B19F0008F0B587B033
:10A1D0000446027D364B1A70837D83B9344B19785F
:10A1E000FE2941D011D80B2958D80B2956D8DFE8C1
:10A1F00001F01629165555555555555555292D4AD1
:10A2000003212120A9F06AFEE8E7FF2946D1AAF040
:10A21000D8FC03685B6A22462749984710E0AAF0F9
:10A22000D0FC054603685E690523ADF8043001A93A
:10A23000684686F099FB23461F4A00992846B04796
:10A2400007B0F0BDAAF0BDFC054603685E690A23AD
:10A25000ADF80C3003A902A886F086FB2346164A07
:10A2600002992846B047EBE7AAF0ABFC03685B6AAB
:10A27000114E224631469847AAF0A3FC05460368D2
:10A280005F690123ADF8143005A904A886F06CFBC2
:10A290002346324604992846B847D1E7044BFF22AB
:10A2A0001A70064A02211D20A9F018FEC8E700BF57
:10A2B000C885022098660F0801A00008CC660F0828
:10A2C00010B50C46124A10210A2048F035FE114BF9
:10A2D000186048B1104A0F49204648F011FA0F4B58
:10A2E000186058B1002010BD0D4A01212120A9F0AD
:10A2F000F5FD40F2017086F04FFCEBE7094A0121C1
:10A300002120A9F0EBFD40F2027086F045FCE9E760
:10A31000286A0F08209A0120046A0F08249A012055
:10A32000E4660F0808670F0830B583B0404BDB7D4B
:10A330006BB9404B1B78FF2B54D00B2B0CD8DFE8AC
:10A3400003F00E141B0B0B0B0B0B0B0B0B23FA2246
:10A350001146394886F03EFB012003B030BD322261
:10A360001146354886F036FBF6E74FF47A7211460F
:10A37000314886F02FFBEFE74FF42F724FF49671C0
:10A380002D4886F027FBE7E72C4B1B7823B33224BC
:10A390002BB340F2B6352A4B19680B681B69684627
:10A3A000984700980199274A1368526813F57A7301
:10A3B00042F10002984271EB0202CDD3214B1860AA
:10A3C00059601E4A137883F0010313702A46214610
:10A3D000194886F0FFFABFE74FF42F74D8E74FF41F
:10A3E0009675D8E7184B1B788BB1184B1B7873B157
:10A3F000174B1B7823B101210F4800F01FFBABE77F
:10A40000322240F2B6310C4886F0E4FAA4E7114B50
:10A410001B782BB164221146074886F0DBFA9BE7D4
:10A4200040F2B6323221044886F0D4FA94E700BFF5
:10A4300068870120C8850220081200208F70022042
:10A44000F0820220001200209170022094700220FD
:10A45000937002209270022010B5084B1870084CBF
:10A460002046ACF0D8FA074B18702046ACF033FB0E
:10A47000054B1870FFF758FF10BD00BF9170022008
:10A48000F0CD0020947002209370022010B5154882
:10A49000ABF045F858B9144B1B78FBB1134800F0EA
:10A4A000E1FA134B186808B100F0DCFA10BD114C4A
:10A4B0002046ACF0B0FA104B18702046ACF00BFB05
:10A4C0000E4B18700E482FF087F9003818BF012086
:10A4D0000C4B18700348ABF02CF8DCE7FFF724FFB7
:10A4E000DCE700BF98B00020907002200812002026
:10A4F00064870120F0CD0020947002209370022028
:10A5000050F901209270022008B5094B186848F0F4
:10A51000CBFAB0F1FF3F00D008BD064A012121204F
:10A52000A9F0DCFC40F2067086F036FBF4E700BFD1
:10A530002C9A012024670F0808B58102094BA3FB60
:10A5400001318909084B186848F084FA00B908BD40
:10A55000064A01212120A9F0C1FC40F2057086F0D5
:10A560001BFBF4E7D34D62102C9A01203C670F08C7
:10A5700010B540F6B8330B4A02212120A9F0AEFCF9
:10A5800040F6B830FFF7D8FF074B01221A70074C8E
:10A590000021204600F052FA4FF4FA71204686F06E
:10A5A0001FFA10BD58670F08907002200812002093
:10A5B00008B5FFF7A9FF064B1B7803B908BD044B8C
:10A5C00000221A70034A02212120A9F087FCF5E736
:10A5D0009070022098670F0838B50379012B05D0D9
:10A5E000174B1B783BB1FFF7E3FF38BD40F6B8309F
:10A5F000FFF7A2FFF9E7FFF787FF124803689B68A0
:10A600009847114B1B78ABB9104D2846AAF080FF34
:10A6100000224FF461710E489DF093FE04462846D7
:10A62000AAF087FF002CE0D00A4A01212120A9F0DE
:10A6300055FCDAE7084A02212120A9F04FFCD4E7B3
:10A6400090700220845F02209170022098B0002058
:10A6500088A2002068660F08BC670F0808B50A21A9
:10A66000074B186848F0F6F900B908BD054A012102
:10A670002120A9F033FC40F2057086F08DFAF4E752
:10A68000289A0120FC670F08004870478487012042
:10A6900070B58AB005460DF1040C184C0FCCACE82F
:10A6A0000F000FCCACE80F002368CCF800302E462A
:10A6B000E5B9134D2846ACF0AEF904462846ACF097
:10A6C0000AFA04B900208DF805000E489DF08CFDB3
:10A6D0008DF826000C4B93F83A398DF804304EB9BA
:10A6E00001A90A4886F058FB0AB070BD0848AAF0D4
:10A6F0000FFFDEE70648AAF01CFFF1E7406A0F08EB
:10A70000F0CD002088A200206896002084870120D8
:10A7100098B0002008B501460A4B186858B10023CC
:10A72000182248F063FC00B908BD074A0121212026
:10A73000A9F0D4FBF8E7054A01212120A9F0CEFBBE
:10A74000F2E700BF209A012014680F0844680F0840
:10A7500000B585B00123ADF800300190034B0393A1
:10A760006846FFF7D7FF05B05DF804FBA5A7000812
:10A7700008B5CB6813B10846984708BD024A0221C4
:10A780002120A9F0ABFBF8E768680F0808B50022A4
:10A79000024903482CF028FD08BD00BF49090908FB
:10A7A00098B0002008B50388012B04D1044B1B7816
:10A7B00013B9FFF7DDFE08BDFFF7E8FFFBE700BFB9
:10A7C0009070022008B50022024903482CF00CFDCD
:10A7D00008BD00BF5509090898B0002010B5A4B005
:10A7E000044603AB01938123029365F039FB01A971
:10A7F00066F04AF890B934B901AB93E803001BF056
:10A80000FBFB24B010BD084C029A0199204686F04B
:10A81000DAFA0121204686F020FBEDE7034A012108
:10A820002120A9F05BFBECE78487012098680F08E2
:10A8300008B50020FFF7D2FF0120FFF729FF0248EB
:10A8400086F0FAFA08BD00BF8487012010B50446DF
:10A85000002302461946274848F09CF8264B18600A
:10A86000002832D0002322460121244848F092F8E3
:10A87000234B1860002832D0224B234A022121208A
:10A88000A9F02CFB0123214A02212120A9F026FB5B
:10A890002AF0FAFE03685B6F98470120FFF79EFFDE
:10A8A00000F0B6F800211A48FBF7BAFE0022194959
:10A8B0001948AAF0EFFD1948ACF0FCF8184B1870D5
:10A8C00018491948A1F0B6FF10BD184A01212120EE
:10A8D000A9F004FB40F2047086F05EF9C2E7144A66
:10A8E00001212120A9F0FAFA40F2047086F054F90F
:10A8F000C2E700BF51A700082C9A0120930909085C
:10A90000289A0120A4B30F08E8680F080C690F0803
:10A910000812002075A9000898B00020F0CD002092
:10A920009170022058870120209C0020B0680F08F9
:10A93000CC680F08014B1878704700BF9170022057
:10A9400010B582B00446FFF7F5FF08B902B010BD9C
:10A95000002323730DF10701054886F019FA9DF8CD
:10A960000730022BF2D10021014886F04EFAEDE7C4
:10A970008487012030B585B00446038848F202027E
:10A98000934207D948F20402934206D1027A1D4B42
:10A990001A7002E0B3F5004F01D805B030BDFFF7E3
:10A9A00073FE05460DF1070186F0F2F99DF80730B8
:10A9B000012B1DD094F90830012B03D094F90930F4
:10A9C000012BEAD1104A02212120A9F087FAAAF02E
:10A9D000F8F8044603685D690323039303A902A8FA
:10A9E00085F0EAFF0023094A02992046A847D4E7E8
:10A9F0000020FFF74DFE9DF80710284686F005FA67
:10AA0000D8E700BF917002202C690F08610909087E
:10AA100008B5024803681B6A984708BDD8FB0120A7
:10AA200010B5044604480368DB6A217C9847637CC0
:10AA300083F00103637410BDD8FB012038B50446D0
:10AA40000D460023C360836000220023C0E9002379
:10AA5000034803685B6A227C9847657438BD00BF71
:10AA6000D8FB012083680BB370B582B00446C3687D
:10AA700093B10F4B19680B681B6968469847009E95
:10AA8000019D637C53B1A168236862685B1842F141
:10AA90000002B342AA4103D302B070BDE168F3E7FC
:10AAA0002046FFF7BDFF26606560F5E7704700BFF1
:10AAB000F0820220024A0260024A0260704700BF30
:10AAC000F47D0F08B06C0F08024A0260024A02606F
:10AAD000704700BFE0AF0F084C6C0F0808B5024884
:10AAE000ABF091FF08BD00BFF0CD002008B50248D3
:10AAF000ABF08DFF08BD00BFF0CD0020012800D0D5
:10AB000070474FF6FF739942FAD110B50B480C4BC2
:10AB100003600C4B0360002343608360C3600374D5
:10AB2000436103764376084C22460849E9F0D3F99D
:10AB3000224607490748E9F0CEF910BD3C9A0120AA
:10AB4000C86B0F08587F1008307B0220199E03083D
:10AB5000B5AA00082081022008B5024830F012F89A
:10AB600008BD00BFF0CD002008B5064B03602433BC
:10AB70004360836823B9044B4360044B036008BD02
:10AB8000EAF0E5FA6C6C0F082C6C0F080C6C0F08DF
:10AB9000A0F10400E8E700BF10B50446054B0360D0
:10ABA000443343609CF024FE2046FFF7DDFF20463F
:10ABB00010BD00BF88F20F08A0F10400ECE700BF51
:10ABC00010B50446044B0360044B03600821B5F044
:10ABD000F4FA204610BD00BFF47D0F08B06C0F08DA
:10ABE00008B50A482CF054F9094830F00DFA00B1C4
:10ABF00008BD01210748FFF7AFFF0028F8D106483C
:10AC00002CF046F90248ABF0FCFEF1E7646A0F084D
:10AC1000F0CD002050F90120846A0F0810B5012002
:10AC200085F0E9FE0F4803681B6898470E4A00212B
:10AC30000E4847F065FD0E4C20600E482CF028F9B8
:10AC4000236863B1074803685B69984728F09EFE54
:10AC500009482CF01DF9AC2085F09EFF10BDEAF0EC
:10AC600076FA00BFD8FB0120E06C0F0819AF00088E
:10AC7000389A0120A06A0F08B46A0F0810B504467C
:10AC8000044B0360044B03600421B5F096FA2046A0
:10AC900010BD00BFE0AF0F084C6C0F0838B504467C
:10ACA000C3689BB1636BB3B1A36BEBB1E36B23B32D
:10ACB000244B2362244DE1682846A3F07DF9236AE2
:10ACC0002B612846A2F0CAFAD0B138BD1F4B204AEA
:10ACD0005A60C360E6E7E1681E4885F0C2FE0028BE
:10ACE000F3D11C4B6363DFE7E1681B4885F0F6FE98
:10ACF0000028EAD1184BA363D8E7184BE363D7E7E2
:10AD0000114BE361E368D3B1154A5360002000287A
:10AD1000DBD1134B236103F04BFA6062114BA3624A
:10AD2000114A02212120A9F0D9F8E1680F4809F061
:10AD3000E9FB0028C9D10D4B63610020C5E72F2036
:10AD4000E5E700BFD4810220A8DE0120F4810220C3
:10AD50004CF00120E081022014E10120D07200209B
:10AD6000A0DE0120D8810220CC6A0F0864DE012019
:10AD700030B585B00446504D28462CF089F8214660
:10AD80004E482CF085F828462CF082F84C482CF0E0
:10AD90007FF84C4885F03CFE08B105B030BD214637
:10ADA00049482EF011FD65F05BF80446E1F09CFB8C
:10ADB0000028F2D12546002C4CD0201D2AF0C6FBDD
:10ADC0000CB104F1080528462AF048FB2046E1F0C2
:10ADD000A0FB002840D03D4B3D4A02211F20A9F096
:10ADE0007DF8FFF7FDFE0028D7D13A48AAF090FB86
:10ADF000394BD3E8AF3F13F0010F2FD0374BD3E8D7
:10AE0000AF3F13F0010F37D0354C364BE363364D6F
:10AE100028462FF00FF865632046FFF73FFF002319
:10AE2000019302930393314B0193314B02933148C9
:10AE3000ABF0B0FD039001ABE3622F4B23602146E2
:10AE40002E481BF0D5FE04462248AAF072FB34B30C
:10AE50002046A2E72046B1E7294BBDE71E48B6F0E1
:10AE600001FB0028CAD0274A27492848E9F033F8CF
:10AE70001948B6F0FCFAC1E71848B6F0F3FA002812
:10AE8000C2D0184C2149204619F06EFE1D4A2049B7
:10AE90002046E9F020F81148B6F0E9FAB4E71D4879
:10AEA0002BF0F6FF0B482CF0C1F900287FF475AFAA
:10AEB00000F086F8002070E7106B0F08446B0F0855
:10AEC000506B0F0890B0002050F90120FC6A0F0869
:10AED000606B0F0898B00020349A0120309A01204E
:10AEE000E0800220201200203C9A0120DDAA000808
:10AEF000EDAA0008F0CD00205487012068760020DC
:10AF0000046B0F08307B0220C9AA0008DC800220F5
:10AF100099AB0008746B0F0810B51948FFF728FFAC
:10AF200028BB184C184BD3F884142046A9F028FEEF
:10AF300020462AF0FBFA1548AAF0EAFA64F090FFDE
:10AF400000B10C3020F084FE1048AAF0F2FA10484C
:10AF50002BF09EFF0F4864F085FC58B90E4B186823
:10AF600047F03AFC48B90C4B00221A6010BD85F03E
:10AF700013FED6E785F010FEF0E7EAF0E8F800BF30
:10AF80009C6B0F082081022068A6002098B000204A
:10AF9000AC6B0F08845F0220389A012008B5024884
:10AFA00027F0ECFD08BD00BFB8EC012008B5012179
:10AFB000024B186847F038FC08BD00BF589A0120C2
:10AFC00008B50C4827F022FD60B901F09BFE01F0A6
:10AFD000EDFE094A0021094847F092FB084B186032
:10AFE00030B108BD074B084A752108487DF006FCC2
:10AFF000EAF0ADF8B8EC0120846D0F089DAF0008B1
:10B00000589A0120046D0F08106D0F082C6D0F0861
:10B01000024A0260024A0260704700BF405E1008A8
:10B02000046F0F08044A026020324260034A426003
:10B03000034A0260704700BF34700F08206F0F088A
:10B04000D86E0F08A0F10400ECE700BF024A0260CE
:10B05000024A0260704700BF00E20F08EC6F0F0861
:10B06000024A0260024A0260704700BF84E10F0892
:10B07000406F0F0810B50446064B03602033436051
:10B08000054B4360054B03601021B5F096F8204650
:10B0900010BD00BF34700F08206F0F08D86E0F0866
:10B0A000A0F10400E6E700BF10B50446054B0360BD
:10B0B000406B08B137F0C0F900236363024B236093
:10B0C000204610BD34D70F08B06E0F0810B50446E7
:10B0D000154B03606433436000F50E7038F00EF8D2
:10B0E00004F5D07204F5067300E0183B9A42FCD1D7
:10B0F0000E4B63642033A3640D4BA3640D4B636458
:10B1000004F11C00636A13B100226262984704F1E3
:10B110000800236913B1002222619847064B63603F
:10B12000064B2360204610BDE8DD0F0834700F0881
:10B13000206F0F08D86E0F08EC6E0F08906F0F0885
:10B14000A0F10400C2E700BF10B50446064A012181
:10B150000C20A8F0C3FE0023A360E06810B10368D0
:10B160009B68984710BD00BFA86D0F08A0F10400B0
:10B17000EAE700BF30B583B0C068D8B10D461446C9
:10B180001A68019200221A6001AA214612F022FEDA
:10B19000019808B137F050F9002301930C4B1B685C
:10B1A0000093A3886BB12B8943F040032B810020CF
:10B1B00003B030BD074A01210C20A8F08FFE00200B
:10B1C000F6E7E388002BEED12378402BEBD1EEE7B6
:10B1D00074700F08BC6D0F08A0F10400CAE700BF2F
:10B1E000F0B587B006460C46224A03211520A8F088
:10B1F00075FEB568002D2DD00023ADF810301E4B24
:10B200001B68039323893BB31C4A1268039253B310
:10B210000123ADF81030277B606837F0F1F86368E0
:10B22000059304AB009305AB3A46A168284628F085
:10B23000EFFF0446059808B137F0FEF800230593A8
:10B240002CB1B06818B1A8F0C8FF0023B360204645
:10B2500007B0F0BD0320FBE76289022AD4D1227B2C
:10B26000142AD1D1D7E76389002BD1D1237B402B7E
:10B27000CED1D0E7F06D0F0870700F0874700F0812
:10B2800008B50D4BD3E8AF3F13F0010F01D00B48C9
:10B2900008BD0948B6F0E6F80028F8D00748084B82
:10B2A0000360084B0360084A0849E8F014FE0248AE
:10B2B000B6F0DDF8EBE700BF14A3012018A30120CE
:10B2C000046F0F08405E1008307B022011B00008A8
:10B2D00010B50446044B0360044B03600421B4F032
:10B2E0006CFF204610BD00BF405E1008046F0F08C1
:10B2F00086B02F4B03602F4B43602F4B03606433AA
:10B30000436000F10803C360836000230361406170
:10B310002A4A826103AA04920392059300F11C0257
:10B320000262C26143628062254AC262CDF804D0E3
:10B33000CDF800D0029303634363836380F83C300D
:10B340000364204A4264204A8264204A42642032D4
:10B35000826480F87430C0F88030C0F88430C0F85F
:10B360008830C0F88C30C0F89031C0F8943180F843
:10B370009831C0F89C3100F5D072042303E000211D
:10B3800002F8181B013B002BF9DA0023C0F8183231
:10B390000522C0F81C2280F82032C0F83C32C0F8E8
:10B3A00040320B4AC0F8382280F8443206B0704769
:10B3B000906F0F08EC6E0F08E8DD0F08A5F101088B
:10B3C0004DE40108D86E0F08206F0F0834700F0885
:10B3D000F8AB100838B504460B4B036000254560F8
:10B3E00005720A4B40F8103B30F088FBC4F8D0508F
:10B3F000C4F8D450064904F1D80085F0B5FAC4F871
:10B40000DC50204638BD00BFB06E0F0834D70F089F
:10B410006C700F08012800D0704738B54FF6FF73E5
:10B42000994200D038BD0F4D2846FFF761FF0E4C02
:10B4300022460E492846E8F04EFD22460C490D48AA
:10B44000E8F049FD22460C490C48E8F044FD0C4D5B
:10B450002846FFF7BFFF22460A492846E8F03BFD91
:10B46000E0E700BF50160020307B0220CDB000087E
:10B470004DB000084881022061B0000828810220F8
:10B4800070150020A9B00008F0B583B0164E304604
:10B4900012F062FF154901F54053D3F88434144A81
:10B4A0005360144D144F00972B46304613F00EF99D
:10B4B000124B2B612EF048FF0446024631462846C7
:10B4C00014F0AEF8394620462EF042FE18B90A4B69
:10B4D0005C6003B0F0BD0A482BF0DAFC094B0A4A65
:10B4E0006D210A487DF08AF9501600206876002008
:10B4F000488102202881022070150020805101001F
:10B50000046E0F08206E0F08386E0F08586E0F0873
:10B5100010B50446044B0360044B03600821B4F0EB
:10B520004CFE204610BD00BF00E20F08EC6F0F0874
:10B5300010B50446044B0360044B03602021B4F0B3
:10B540003CFE204610BD00BF84E10F08406F0F088D
:10B550002DE9F04F87B00446394BD3F828B0D3F823
:10B560002CA0D3F834909D6BD0F800804768866893
:10B57000C368019302690292416903918069049052
:10B58000E26905922F4A01210020A8F0A7FC5B4642
:10B590002D4A01210020A8F0A1FC53462B4A01218D
:10B5A0000020A8F09BFC4B46294A01210020A8F06E
:10B5B00095FCDFF8C4902B464A4601210020A8F0F4
:10B5C0008DFC2B464A4601210020A8F087FC23462B
:10B5D000204A01210020A8F081FC43461E4A012197
:10B5E0000020A8F07BFC3B461C4A01210020A8F06B
:10B5F00075FC33461A4A01210020A8F06FFC019B1C
:10B60000184A01210020A8F069FC029B164A01217A
:10B610000020A8F063FC039B144A01210020A8F03D
:10B620005DFC049B124A01210020A8F057FC059BF9
:10B63000104A01210020A8F051FCB8F0EAFAFEE718
:10B6400000ED00E078700F0884700F0898700F0804
:10B65000AC700F08D4700F08E8700F08FC700F086A
:10B6600010710F0824710F0838710F084C710F0802
:10B6700060710F0874710F08C0700F0808B5064B91
:10B68000064A01210020A8F029FCB8F0C2FA0449BA
:10B6900004487DF093FDFEE788710F08B44311085C
:10B6A000AC710F08C4710F0800B59BB00D460024A3
:10B6B00001946022214602A8E9F0DBFF2B46094AEB
:10B6C000642101A87DF08CFD01AB074A01212046D1
:10B6D000A8F004FCB8F09DFA044905487DF06EFD21
:10B6E000FEE700BFE0710F08B4431108AC710F080A
:10B6F000C4710F08034B0360034B0B604FF4A0733E
:10B7000013607047D4B80120D4B30120034B036009
:10B71000034B0B604FF48063136070471CB3012030
:10B720001CA3012000B59BB00D46002401946022AB
:10B73000214602A8E9F09DFF2B46064A642101A894
:10B740007DF04EFD01AB044A01212046A8F0C6FB66
:10B75000E9F0FDFCF4710F08B443110800B589B09D
:10B760000446002100911A2201A8E9F082FF234635
:10B77000074A1E2168467DF033FD694605482BF0D7
:10B7800087FB684685F0FAF948F0A0FCE9F0DFFC99
:10B7900004720F081C720F08F8B516461D46DCB27D
:10B7A0000E4B1B78E41AE4B20D4885F024FAA0424F
:10B7B00009D20C4B2A4631460B4800683AF002FF8A
:10B7C000FFF7F4FBF8BD054F3988224631440448A1
:10B7D00085F018FA00233B80EBE700BF2C700220B5
:10B7E0008CB9012099B70008D880022008B5012142
:10B7F000024B186847F018F808BD00BF08D90120AF
:10B8000038B504460D46012085F078FA084B2A46E3
:10B810002146084800683AF09BFF4FF0FF320021B4
:10B82000012047F04FF8012085F075FA38BD00BFC0
:10B83000EDB70008D880022000B5C3B00023ADF8F2
:10B8400006314FF0FF33002201A90948006847F094
:10B8500017FC0028F5D1BDF8061101A8FFF7D0FFAD
:10B8600000231A4601A90248006847F009FCF0E7E6
:10B870004CD4012038B5224B1B6803B138BD214A96
:10B880004FF48271192047F057FB1F4B18601F4A75
:10B8900000211F4846F034FF194C20604FF480729D
:10B8A0001C491D4885F07BF923682BB3164B1B6898
:10B8B00023B3B0F045FD194D194C2B468022194990
:10B8C00020683AF07FFE2B468022174920683AF024
:10B8D00079FE0B2041F078FC0B20B4F0DDFA134820
:10B8E00000F500531422DA6400F5805304221A652F
:10B8F0000521B1F09DFBC1E7E9F029FCE9F027FC47
:10B9000008D9012038720F084CD4012058720F0852
:10B9100039B8000898B901208CB9012099B70008FE
:10B92000D88002208CD901200CD901200000015BB5
:10B9300008B5FFF73BFB044B03F5005204211165EA
:10B94000D164DB6C08BD00BF0000015B18B330B5EB
:10B95000C3B00C46054609B3B1F5817F21D8144B1D
:10B960001B68ABB10023ADF806312246294601A879
:10B97000E9F02AFFADF806414FF0FF33182201A984
:10B980000B48006847F032FB70B920B243B030BDBD
:10B99000FFF770FFE6E74FF0FF3070474FF0FF30E2
:10B9A000F4E74FF0FF30F1E74FF0FF30EEE700BF74
:10B9B0004CD401201D4B04221A65002830D070B5EC
:10B9C00084B00C46054600292DD0194885F0F4F8BE
:10B9D000A04207D322462946154885F04EF900B209
:10B9E00004B070BDB0F01BFE064602AB01AA03A96D
:10B9F00010480068B1F051F80F4B1B88019A934230
:10BA000003D33046B0F011FEE4E7D21A92B20399A4
:10BA10001944074885F0F6F8074B019A1A80F0E7B9
:10BA20004FF0FF3070474FF0FF30D9E70010015B57
:10BA30008CB90120D88002202C70022000B583B080
:10BA4000084803681988803901EBD171064B0193CE
:10BA50002D230093802300224910B1F039FD03B05B
:10BA60005DF804FB0CDA0120C8760F0830B5844677
:10BA70000D4C00F1200E2546DCF80000DCF8041027
:10BA8000DCF80820DCF80C300FC50CF1100C2C464B
:10BA9000F445F0D12B46DCF80000DCF80410DCF8AB
:10BAA000082007C330BD00BF0CDA012010B584B0F8
:10BAB0000446FFF7C3FF2046E9F093FE142803D99C
:10BAC00085F036F904B010BD0123029300220192E3
:10BAD0000092052221460248B1F02EFEF0E700BF99
